:020000040800F2
:10000000700600203D020008450200084702000873
:10001000490200084B0200084D02000800000000E1
:100020000000000000000000000000004F02000877
:1000300051020008000000005302000855020008A9
:10004000570200085702000857020008570200082C
:10005000570200085702000825050008570200084B
:10006000570200085702000857020008570200080C
:1000700057020008570200085702000857020008FC
:10008000570200085702000857020008000000004D
:1000900000000000000000000000000057020008FF
:1000A00057020008570200085702000857020008CC
:1000B00015080008910800085702000857020008B8
:1000C00057020008570200085702000857020008AC
:1000D00057020008570200085702000800000000FD
:1000E00057020008570200085702000800000000ED
:1000F000000000000000000000000000570200089F
:1001000000000000570200085702000857020008CC
:1001100000000000000000000000000000000000DF
:10012000570200085702000857020008570200084B
:10013000570200080000000000000000000000005E
:10014000000000000000000000000000570200084E
:10015000570200085702000857020008570200081B
:1001600057020008570200080000000000000000CD
:10017000000000000000000000000000000000007F
:10018000000000005702000800000000000000000E
:100190005702000800F002F800F040F80AA090E8CA
:1001A000000C82448344AAF10107DA4501D100F032
:1001B00035F8AFF2090EBAE80F0013F0010F18BFBF
:1001C000FB1A43F001031847A8090000C809000002
:1001D000103A24BF78C878C1FAD8520724BF30C873
:1001E00030C144BF04680C60704700000023002445
:1001F00000250026103A28BF78C1FBD8520728BF37
:1002000030C148BF0B6070471FB500F0A3FC9DE8EC
:10021000030000F081F81FBD10B510BD00F000F91B
:100220001146FFF7F1FF00F02DFC00F01EF903B4BA
:10023000FFF7F2FF03BC00F04FF9000009488047C8
:1002400009480047FEE7FEE7FEE7FEE7FEE7FEE7B8
:10025000FEE7FEE7FEE7FEE704480549054A064BD0
:1002600070470000A10700089501000870000020F9
:1002700070060020700200207002002070B5064653
:1002800000F02EF8056806F10B0020F00704B442D8
:100290009CBF002070BD2B466A68BAB11068A042AE
:1002A00010D304F1080188423CBF5068586007D35E
:1002B0005168101941601168091B01605860146091
:1002C000101D70BD13465268002AE7D1214628460A
:1002D00000F00EF80028DED170BD704770477047FF
:1002E0000048704710000020704770477047704703
:1002F00038B504460A4600206946AFF3008000285E
:1003000008BF38BD02460099204600F067F801207A
:1003100038BD012000F07CB8F8B5AFF30080054689
:1003200000200C46102000BF0646A819A0420DD997
:10033000324669460020AFF30080070008BF00F096
:1003400067F80098A04218BF0546C419FFF7C8FF18
:1003500005600746F01D20F007004619284600F00A
:100360000AF8B44208BFF8BDA21B31463868BDE8A0
:10037000F84000F033B800210160C0E90110704777
:100380001020704770B50446051FFFF7A9FF0068ED
:10039000002C14BF446870BD002C18BFAC423CBF99
:1003A00020466468F8D301680A18AA4218BF45605D
:1003B00003D12A6805461144016028684119A14209
:1003C0001CBF6C6070BD616869602168084428606A
:1003D00070BD0000004870470800002003464068D8
:1003E0008C46002818BF88423CBF03464068F8D3BB
:1003F00018681844884207D00CF1030020F0070069
:10040000001D411A521A0146081D0A60FFF7BABFC3
:1004100010B500F039F8BDE8104000F02FB8704773
:100420007546FFF7D7FFAE4605006946534620F0F4
:100430000700854618B020B5FFF70EFFBDE8204045
:100440004FF000064FF000074FF000084FF0000B90
:10045000AC46ACE8C009ACE8C009ACE8C009ACE8FF
:10046000C00921F007018D46704710B50446AFF36F
:1004700000802046BDE81040FFF7D9BE002801D01B
:1004800000F02AB87047000010B5012805D00021FF
:1004900003A000F027F8012010BD09A1F8E7000033
:1004A00053494752544D454D3A204F7574206F665D
:1004B0002068656170206D656D6F727900000000C5
:1004C0003A2048656170206D656D6F727920636FA9
:1004D000727275707465640001491820ABBEFEE746
:1004E0002600020070B505460C460A2000E06D1C8F
:1004F00000F011F835B128780028F8D102E0641C2A
:1005000000F009F814B120780028F8D1BDE8704057
:100510000A20AFF3008008B569468DF8000003207B
:10052000ABBE08BD80B540F20000C2F2000000681A
:1005300058B9FFE700F03EF900F074F940F200010D
:10054000C2F200010120086012E040F20000C2F295
:100550000000006801280AD1FFE74FF08041002029
:10056000086040F20041C4F200010860FFE7FFE7C5
:1005700080BD000080B582B08DF807009DF80700AF
:1005800000F0F0000021009100F064F800999DF85F
:1005900007000001C0B200F05DF89DF807000328D5
:1005A00004DCFFE7022000F051FA03E0012000F034
:1005B0004DFAFFE702B080BD80B582B08DF807002C
:1005C0009DF8070000F0F0004FF40071009100F07A
:1005D00041F800999DF807000001C0B200F03AF818
:1005E000012000F033FA02B080BD000080B584B075
:1005F00000F0A0F8142000F029FA3020019000212A
:10060000029100F027F8052000F020FA01980299E5
:1006100000F020F80120039000F018FA01980299E8
:1006200000F018F8039800F011FA0299202000F069
:1006300011F8039800F00AFA2820FFF79BFF062024
:10064000FFF798FF0398FFF795FF0F20FFF792FF42
:1006500004B080BD80B584B08DF80F00029140F6E3
:100660001801C4F202010020CFF6FF7008601821C3
:10067000C4F20201086040F21841C4F202010860AD
:100680009DF80F00C006002807D5FFE740F218418B
:10069000C4F2020120200860FFE79DF80F008006E9
:1006A000002807D5FFE740F21841C4F202011020EC
:1006B0000860FFE79DF80F004006002808D5FFE717
:1006C00040F21841C4F202014FF480600860FFE775
:1006D0009DF80F000006002807D5FFE71821C4F297
:1006E00002014FF480700860FFE79DF80900800761
:1006F000002807D5FFE71821C4F202014FF400706B
:10070000086006E01821C4F202014FF00070086092
:10071000FFE740F61801C4F2020101918020086051
:10072000022000F093F901994FF40000086004B032
:1007300080BD000043F63001C4F20201086840F0B9
:10074000070008600021C4F20201086800F440605C
:100750000860086840F4A020086040F20041C4F23C
:100760000201086800F420500860086840F2505206
:10077000C0F210021043086040F60001C4F202010A
:10078000086800F47F400860086840F48040086012
:1007900040F61801C4F202014FF4000008607047EF
:1007A0004EF68851CEF20001086840F470000860EF
:1007B0007047000080B572B643F64001C4F20201F2
:1007C000086840F0010008602821C4F200010F20F1
:1007D00008602C21C4F20001012008604FF0804124
:1007E000086840F0010008602422C4F200020020E2
:1007F00010600C22C4F20002106840F0010010608A
:10080000086840F0010008601C2000F07BF862B628
:1008100080BD000040F26801C2F2000108680130AA
:100820000860704780B572B643F64001C4F2020119
:10083000086840F00200086040F22841C4F200015C
:100840000F20086040F22C41C4F2000163200860D0
:1008500040F20041C4F20001086840F00100086065
:1008600040F22442C4F200020020106040F20C4228
:10087000C4F20002106840F001001060086840F007
:10088000010008601D2000F03DF862B680BD000048
:1008900080B584B040F26800C2F2000000680390A6
:1008A000002002900120FFF765FEFFE7039868B182
:1008B000FFE703984CF6CD41CCF6CC41A0FB0110EC
:1008C000C0080390029801300290EFE740F2680000
:1008D000C2F20000006800F02DF8019000200090A6
:1008E000FFE70098029988420ADAFFE70198009929
:1008F000405CFFF761FEFFE7009801300090F0E7F1
:1009000004B080BD81B08DF803009DF9030000287C
:100910000ED4FFE79DF9031001F01F020120904063
:100920004A094EF20011CEF2000141F82200FFE721
:1009300001B07047D0B502AF8AB047F80C0C57F839
:100940000C0C47F8100C002047F8140CFFE757F880
:10095000100C98B1FFE757F8140C013047F8140C4D
:1009600057F8100C46F26761C6F2666150FB01F160
:10097000881000EBD17047F8100CE8E757F8140C1A
:10098000694647F81C1CC11D21F007026946891AF7
:100990008D4647F82C1C47F8200C57F8140CFFF72D
:1009A0006DFC47F8180C002047F8240CFFE757F8B7
:1009B0000C0CF8B1FFE757F82C2C57F80C0C4CF640
:1009C000CD41CCF6CC41A0FB01C3DB0803EB830394
:1009D000A0EB430040F0300057F8243C013347F8C7
:1009E000243CD05457F80C0CA0FB0110C00847F869
:1009F0000C0CDCE7002047F8280CFFE757F8280C20
:100A000057F8241C884212DAFFE757F82C0C57F8E5
:100A1000241C57F8282C891A405C57F8181C885455
:100A2000FFE757F8280C013047F8280CE6E757F89D
:100A3000181C57F8282C0020885457F8180C57F821
:100A40001C1C8D46A7F10804A546D0BD82B00190BC
:100A5000FFE70198012813DBFFE700200090FFE784
:100A6000009840F67A41884205DCFFE7FFE70098EE
:100A700001300090F4E7FFE7019801380190E8E7C2
:100A800002B0704780B586B000200590FFF7AEFD3C
:100A900072B643F64401C4F20201086840F4804093
:100AA000086043F60801C4F20101086840F0010043
:100AB000086043F60041C4F20101086840F00100FB
:100AC000086043F60841C4F20101086840F00100E3
:100AD00008600620FFF716FF62B64820FFF76CFD9E
:100AE0004520FFF769FD4C200090FFF765FD009859
:100AF000FFF762FD4F20FFF75FFD4FF4FA7004909F
:100B0000FFF7A4FF01200390FFF734FD4FF47A7044
:100B10000290FFF79BFF4220FFF74EFD5920FFF7A1
:100B20004BFD65200190FFF747FD0198FFF744FD5D
:100B30000198FFF741FD0298FFF788FF0398FFF740
:100B400019FD0498FFF782FFFFF734FEFFF76AFEF6
:100B5000FFE7FEE7F1EE100A4FF6FF71C0F2C03179
:100B600020EA010040F04070E1EE100A70470000FA
:100B7000900B00080000002008000000D0010008D1
:100B8000980B00080800002068060000EC0100082F
:080B900001000000000000005C
:040000050800019559
:00000001FF
