:020000040800F2
:1000000060060020190200082102000823020008EF
:10001000250200082702000829020008000000004D
:100020000000000000000000000000002B0200089B
:100030002D020008000000002F0200083102000815
:1000400033020008330200083302000833020008BC
:1000500033020008330200083302000833020008AC
:10006000330200083302000833020008330200089C
:10007000330200083302000833020008330200088C
:1000800033020008330200083302000800000000B9
:100090000000000000000000000000003302000823
:1000A000330200083302000833020008330200085C
:1000B000330200083302000833020008330200084C
:1000C000330200083302000833020008330200083C
:1000D0003302000833020008330200080000000069
:1000E0003302000833020008330200080000000059
:1000F00000000000000000000000000033020008C3
:100100000000000033020008330200083302000838
:1001100000000000000000000000000000000000DF
:1001200033020008330200083302000833020008DB
:100130003302000800000000000000000000000082
:100140000000000000000000000000003302000872
:1001500033020008330200083302000833020008AB
:100160003302000833020008000000000000000015
:10017000000000000000000000000000000000007F
:100180000000000033020008000000000000000032
:100190003302000800F002F800F02EF80AA090E800
:1001A000000C82448344AAF10107DA4501D100F032
:1001B00023F8AFF2090EBAE80F0013F0010F18BFD1
:1001C000FB1A43F001031847DC030000EC030000B6
:1001D0000023002400250026103A28BF78C1FBD850
:1001E000520728BF30C148BF0B6070471FB500F0F1
:1001F000CBF91FBD10B510BD00F031F81146FFF767
:10020000F5FF00F051F900F04FF803B4FFF7F2FFEB
:1002100003BC00F057F80000094880470948004730
:10022000FEE7FEE7FEE7FEE7FEE7FEE7FEE7FEE7A6
:10023000FEE7FEE704480549054A064B7047000003
:100240005D040008950100086000002060060020A1
:1002500060020020600200207047704770477546BA
:1002600000F02CF8AE4605006946534620F0070022
:10027000854618B020B5FFF7DDFFBDE820404FF000
:1002800000064FF000074FF000084FF0000BAC469F
:10029000ACE8C009ACE8C009ACE8C009ACE8C009EA
:1002A00021F007018D46704710B50446AFF300807A
:1002B0002046BDE81040FFF7A8BF00000048704787
:1002C0000000002001491820ABBEFEE72600020016
:1002D0007047000080B584B08DF80F0040F21441E3
:1002E000C4F202010291086820F04000086008682A
:1002F00020F02000086040F61801C4F202014FF41B
:100300007F0008609DF80F0040F61401C4F202015E
:1003100008600020019000F0ABF80198029A116883
:1003200041F08001116000F0A3F80299086820F004
:10033000800008609DF80F00032804DCFFE702201E
:1003400000F096F803E0012000F092F8FFE704B017
:1003500080BD000080B582B08DF8070040F21441E6
:10036000C4F202010091086840F0200008600868AB
:1003700020F04000086040F61802C4F202024FF478
:100380007F0010609DF8070040F61402C4F20202DC
:100390001060086840F080000860002000F068F8F5
:1003A0000099086820F080000860012000F060F8E3
:1003B00002B080BD80B582B000F02CF8142000F0AF
:1003C00057F830200090FFF785FF052000F050F827
:1003D0000098FFF77FFF0120019000F049F8009896
:1003E000FFF778FF019800F043F80098FFF772FFDD
:1003F000019800F03DF83820FFF76CFF0620FFF76A
:1004000069FF0198FFF766FF0F20FFF763FF02B057
:1004100080BD000043F63001C4F20201086840F0DC
:100420000200086040F20C42C4F20202106840F080
:100430000200106040F20042C4F20202106840F470
:10044000AA401060086840F00400086040F600010F
:10045000C4F202014FF05530086070474EF68851E3
:10046000CEF20001086840F4700008607047000098
:1004700083B00290FFE70298012813DBFFE700201A
:100480000090FFE7009840F67A41884205DCFFE7DC
:10049000FFE7009801300090F4E7FFE70298013889
:1004A0000290E8E703B0704780B586B00020019065
:1004B0000590FFF77FFF0120FFF70CFF019840F246
:1004C0001041C4F20201096804910390039830308E
:1004D000C0B2FFF73FFFFFE7FFE740F21040C4F272
:1004E000020000680499884201D1FFE7F5E7012086
:1004F000FFF7F0FE0398092812D8FFE70398303081
:10050000C0B2FFF727FF9620FFF7B2FF40F210407E
:10051000C4F202000068049003980130039032E0B6
:1005200003980290FFE702980A280FD3FFE702988A
:100530004CF6CD41CCF6CC41A0FB0110C008029096
:1005400002983030C0B2FFF705FFECE703984CF695
:10055000CD41CCF6CC41A0FB0121C90801EB8101C2
:10056000A0EB410040F03000FFF7F4FE9620FFF7CB
:100570007FFF40F21040C4F202000068049003982C
:1005800001300390FFE7A7E7F1EE100A4FF6FF7185
:10059000C0F2C03120EA010040F04070E1EE100AE4
:1005A00070470000B405000800000020600600004D
:0405B000D00100086E
:040000050800019559
:00000001FF
