:020000040800F2
:10000000B806002035020008D50D0008CD0D000807
:10001000D10D0008E1030008890F0008000000006E
:10002000000000000000000000000000DD0D0008DE
:10003000E503000800000000D90D0008E10D0008EC
:100040004F0200084F0200084F0200084F0200084C
:100050004F0200084F0200084F0200084F0200083C
:100060004F0200084F0200084F0200084F0200082C
:100070004F0200084F0200084F0200084F0200081C
:100080004F0200084F0200084F0200080000000065
:100090000000000000000000000000004F02000807
:1000A0004F0200084F0200084F0200084F020008EC
:1000B0004F0200084F0200084F0200084F020008DC
:1000C0004F0200084F0200084F0200084F020008CC
:1000D0004F0200084F0200084F0200080000000015
:1000E0004F0200084F0200084F0200080000000005
:1000F0000000000000000000000000004F020008A7
:10010000000000004F0200084F0200084F020008E4
:1001100000000000000000000000000000000000DF
:100120004F0200084F0200084F0200084F0200086B
:100130004F02000800000000000000000000000066
:100140000000000000000000000000004F02000856
:100150004F0200084F0200084F0200084F0200083B
:100160004F0200084F0200080000000000000000DD
:10017000000000000000000000000000000000007F
:10018000000000004F020008000000000000000016
:100190004F02000800F002F800F03CF80AA090E8D6
:1001A000000C82448344AAF10107DA4501D100F032
:1001B00031F8AFF2090EBAE80F0013F0010F18BFC3
:1001C000FB1A43F001031847080F0000280F000036
:1001D000103A24BF78C878C1FAD8520724BF30C873
:1001E00030C144BF04680C60704700000023002445
:1001F00000250026103A28BF78C1FBD8520728BF37
:1002000030C148BF0B6070471FB500F048FF1FBDED
:1002100010B510BD00F0A9F81146FFF7F5FF00F08A
:10022000B5FE00F0C7F803B4FFF7F2FF03BC00F01F
:10023000CFF800000948804709480047FEE7FEE77D
:10024000FEE7FEE7FEE7FEE7FEE7FEE7FEE7FEE786
:1002500004480549054A064B70470000910E000806
:1002600095010008B8000020B8060020B802002060
:10027000B802002053EA020C00F069802DE9F04B2F
:100280004FF00006002B1FBFB3FA83F503FA05F405
:1002900024FA05F65E4012BF1643B2FA82F502FA5E
:1002A00005F4C5F120051EBF22FA05FC44EA0C0442
:1002B000203556EA044C4FEA144418BF641C4FF032
:1002C00000084FF00009904271EB030C39D300296C
:1002D00019BFB1FA81F701FA07F6B0FA80F700FA10
:1002E00007F6C7F120071EBF20FA07FC46EA0C06F6
:1002F0002037B6FBF4FCA7EB0507103F07F01F0BF8
:10030000CBF120062CFA06F60CFA0BFB44BFB346E1
:100310000026202FA4BF5E464FF0000B5BEA060CC0
:1003200008BF4FF0010B19EB0B0948EB0608ABFBBC
:10033000027C06FB02CC0BFB03CCC01B71EB0C0157
:10034000C1E70B46024641464846BDE8F08B13B56F
:10035000084318BF4FF0FF300146AFF30080BDE8FF
:100360001C407047704770477047754600F02CF886
:10037000AE4605006946534620F00700854618B092
:1003800020B5FFF765FFBDE820404FF000064FF0B5
:1003900000074FF000084FF0000BAC46ACE8C00976
:1003A000ACE8C009ACE8C009ACE8C00921F007011D
:1003B0008D46704710B50446AFF300802046BDE877
:1003C0001040FFF730BF00000048704710000020C9
:1003D00001491820ABBEFEE726000200704700006E
:1003E000FEE7000070470000B0B5044600F0FCF8DE
:1003F000054640F20000C2F200000078611C18BF00
:10040000044400BF00F0F0F8401BA042FAD3B0BD96
:100410002DE9F04F82B000F13E4241F2000502F1B9
:10042000FF77C4F2020507224FEAB726A84208BFA9
:100430000422042E38BF4FEAB7224FF0010A0024ED
:1004400000274FF00008009208E000BF023708F1D3
:100450000108202F04F1040400F0B4800E680AFAA9
:1004600008F916EA090FF1D0D1F804A00AF0030B3D
:10047000ABF10106012E17D80322866802FA07FEA7
:10048000CA6826EA0E06BA40324382604268CAF35E
:10049000001522EA090205FA08F54FEA480C6FEA4E
:1004A0000E062A4342600BE00322BA40D643BBF15A
:1004B000030FBC4604D1BC464FF0030B22E000BF43
:1004C000C2688D68324005FA0CF52A43BBF1020F71
:1004D000C26017D16FF0030202EA5802024404F02E
:1004E0001C030F25D2F820E005FA03FA0D692EEA65
:1004F0000A0E05FA03F343EA0E031362D1F804A0CF
:100500000AF0030B02680BFA0CF332401A431AF498
:10051000403F4FF0010A026098D0002243F64403A6
:100520000192C4F202031A6843F6004E42F480427C
:100530001A601A68C4F2010E02F480420192019A14
:1005400028F003024FF6084C7244CFF6FF7C52F8B5
:100550000C3004F00C060F25B540AB43009D05FAA6
:1005600006F6334342F80C30DEF808204B6842EAC6
:10057000090643F60C4CDD0258BF22EA0906CEF804
:100580000860C4F2010CDCF800209D0242EA090672
:1005900058BF22EA0906CCF80060DEF804209D036B
:1005A00042EA090658BF22EA0906CEF80460DEF8DE
:1005B0000020DB0342EA090658BF22EA0906CEF80A
:1005C000006043E702B0BDE8F08F0000426902EA34
:1005D0000103914341EA034181617047002A08BF4A
:1005E000090481617047000040F2B400C2F20000CB
:1005F0000068704740F2000040F2B401C2F200000F
:10060000C2F2000100780A681044086070470000D8
:1006100080B543F60040C4F20200016841F4007165
:100620000160016841F480610160016841F48071FA
:100630000160032000F076F8002000F005F800F0DB
:1006400027F8002080BD000070B540F20006C2F21D
:10065000000640F208013278C2F200014FF47A73CA
:100660000968B3FBF2F20446B1FBF2F1084600F070
:1006700033FB0F2C4FF0010508D838B94FF0FF308D
:1006800021460022002500F021F87460284670BD44
:1006900082B0002043F640010190C4F202014A6892
:1006A00042F480424A604A6802F480420192019A10
:1006B0000090086840F080500860086800F08050A2
:1006C00000900098072002B000F02CB810B54EF64C
:1006D0000C5CCEF2000CDCF80030C3F3022E8EF07E
:1006E0000704042C28BF0424BEF103034FF0FF3E8F
:1006F0000EFA04F438BF0023A14399400EFA03F325
:100700009A43114300F00F02043A624409010C328B
:1007100000F16043B0F1FF3FC8BF03F564421170C0
:1007200010BD00004EF60C51CEF200010A684FF6E3
:10073000FF031A4060F30A2242F0806040F0FD702F
:10074000086070472DE9F041002800F08B8043F6E7
:100750000808C4F202080446D8F8F8030D4600F071
:100760000700884207D288F8F853D8F8F80300F059
:100770000700A84276D12068810717D5410705D523
:10078000D8F8001041F4E051C8F80010010705D571
:10079000D8F8001041F46041C8F80010D8F80010F3
:1007A000A26821F0F0011143C8F80010C0073FD142
:1007B000D8F8F80300F00700A84207D988F8F853E2
:1007C000D8F8F80300F00700A8424BD12068410791
:1007D00007D5D8F80010E26821F4E0511143C8F8B9
:1007E0000010000708D5D8F80000216920F4604007
:1007F00040EAC100C8F8000000F07CF8D8F800100A
:1008000041F2B802C1F30311C0F60002515C40F29C
:10081000080220FA01F140F20400C2F20000006870
:10082000C2F200021160FFF70FFF0020BDE8F08167
:100830006068811E022907D258F8081C89015CBF34
:100840000120BDE8F08111E0012807D158F8081C0B
:1008500089035CBF0120BDE8F08107E058F8081C5F
:10086000890703D40120BDE8F08100BFD8F800104B
:1008700021F003010843C8F80000FFF7B5FE064663
:1008800041F28837D8F80000616800F00C00B0EB46
:10089000810F8DD0FFF7A8FE801BB842F2D903204C
:1008A000BDE8F08140F2080043F60801C2F2000002
:1008B000C4F202010068096841F2C802C1F3822152
:1008C000C0F60002515CC8407047000040F20800CA
:1008D00043F60801C2F20000C4F202010068096890
:1008E00041F2C802C1F34231C0F60002515CC84077
:1008F0007047000010B543F60404C4F202046068B7
:1009000000F00C0142F200400829C0F2F40007D0C8
:10091000042918BF10BD41F20020C0F27A0010BDBA
:10092000216801F03F02216823684902C3F388115E
:1009300006D4A1FB00010023FFF79CFC07E000BFE9
:1009400041F20020C0F27A004843B0FBF2F0216887
:100950000222C1F3014102EB4101B0FBF1F010BDF5
:100960002DE9F04182B000286AD00446007843F6B1
:100970000006C007C4F202060BD0B06800F00C00FD
:10098000042840F0A1803068800302D56068002808
:1009900056D0207880071AD5B06810F00C0F09D017
:1009A000B06800F00C00082840F0A8807068400291
:1009B00000F1A4803068800702D5E06801283FD1AB
:1009C0003068216920F0F80040EAC10030602078EA
:1009D000000739D4207840074ED4A5695DB3B068CC
:1009E00000F00C00082840F0BD80012D28D0706870
:1009F000E16900F480028A4222D1216A00F03F02BC
:100A00008A421DD147F6C071626A0140B1EB821F74
:100A100016D1A26A0023CFF6FF7303EBC23200F4B3
:100A200040316FF30F0291420AD1E16A00F0706029
:100A3000B0EB016F04D1002002B0BDE8F08100BF2F
:100A4000012002B0BDE8F0816069002840F200009A
:100A5000C4F2472076D00121C0F8801EFFF7C4FD04
:100A6000054600BF706F8007B4D4FFF7BDFD401B83
:100A70000228F7D9DDE000BF306C10F080580AD1B1
:100A800000200190306C40F080503064306C00F0F9
:100A900080500190019847F20007C4F200073868BF
:100AA000C00541D4386840F480703860FFF79CFD81
:100AB000054600BF3868C00536D4FFF795FD401BDA
:100AC0000228F7D9B5E000BFB06800F00C00082894
:100AD00003D1706840023FF556AF6068B0F5803FC3
:100AE00007D0B0F5A02F40F08D80306840F4802012
:100AF0003060306840F4803030608DE0E06800287D
:100B000052D00020C4F2472001210160FFF76CFDA4
:100B1000054600BF306880073FF552AFFFF764FD20
:100B2000401B0228F6D984E0A068012805D00528DA
:100B30004ED1306F40F004003067306F40F001005C
:100B400030674FE00021C0F8801EFFF74DFD0546DD
:100B5000706F80077FF53EAFFFF746FD401B022810
:100B6000F6D966E00027C4F2472700203866FFF771
:100B70003BFD022D05460BD1306880015ED5FFF7A5
:100B800033FD401B02284FF00300F5D954E700BFA6
:100B9000306880017FF54FAFFFF726FD401B02282C
:100BA0004FF00300F4D947E70020C4F247200021AA
:100BB0000160FFF719FD0546306880077FF507AF34
:100BC000FFF712FD401B02284FF00300F4D933E772
:100BD000316F002821F001013167316F21F00401EC
:100BE00031674DD0FFF700FD054641F2883700BF61
:100BF000306F800756D4FFF7F7FC401BB842F7D997
:100C000017E000BF3168002821F48031316031687D
:100C100021F4802131604FD0FFF7E6FC054600BF8C
:100C2000306880033FF5B5AEFFF7DEFC401B64285B
:100C3000F6D9032002B0BDE8F08100BF04F11C0525
:100C40002FCD08430021CFF6FF7140EA821001EB5F
:100C5000C3316FF30F0140EA056008437060012063
:100C60003866FFF7C1FC0446306880013FF5E3AE0B
:100C7000FFF7BAFC001B02284FF00300F4D9DBE6B3
:100C8000FFF7B2FC054641F2883700BF306F80079E
:100C900008D5FFF7A9FC401BB8424FF00300F5D977
:100CA000CAE600BFB8F1000F7FF497AE306C20F0B9
:100CB0008050306491E600BFFFF796FC054600BF08
:100CC000306880037FF565AEFFF78EFC401B64281B
:100CD0004FF00300F4D9AFE6411E0020B0EB116FD6
:100CE0001CBF012070474EF21002CEF2000251608C
:100CF0004EF62351CEF20001F0230B7007219060D5
:100D000011607047002804BF0120704710B50446E9
:100D100090F83D0028B9002084F83C00204600F0FF
:100D200021F8242084F83D002068C16821F4005196
:100D3000C160204600F0B6F82068016921F49041B6
:100D40000161416921F02A014161C16841F400510A
:100D5000C16000202021206484F83D1084F83E10FA
:100D600010BD000080B586B0016844F20040C4F2B6
:100D70000000814202D006B080BD00BF002143F6D2
:100D800030020191C4F20202136900F5DE3043F42F
:100D900000331361136903F400330193019B019144
:100DA000136843F001031360126802F0010201921C
:100DB000019A0C2201920222CDE90221049107211D
:100DC000059101A9FFF724FB06B080BDFEE70000F6
:100DD000FEE70000FEE700007047000070470000DB
:100DE000FFF708BCB0B592B0002443F640000B9466
:100DF000CDE90944CDE907440594CDE90344CDE9A3
:100E000001440094C4F202000168022541F08051BF
:100E10000160006800F080500090009847F20000E8
:100E20000094C4F20000016865F38F31016000682E
:100E300000F44040009000980120099010200A9092
:100E40000E904FF4A8700F9004201090072011907E
:100E500006A80695CDE90C54FFF782FD20B1EFF30B
:100E6000108072B6FEE700BF0F20CDE901054FF4F8
:100E70008050CDE9040401A802210394FFF762FC2D
:100E800020B1EFF3108072B6FEE700BF12B0B0BD24
:100E90004EF68850CEF20000016841F47001016006
:100EA0007047000010B504460068D4E902C2236907
:100EB000016921F4405111430161626943EA0C0167
:100EC000E3691143C268194349F20C639A43114321
:100ED000C1604169A26921F4407141F200431143AC
:100EE00040F48062C4F201039A42416102D1FFF7EB
:100EF000EDFC01E0FFF7D6FCE16963681922B1F56A
:100F0000004FA0FB02011FD15A00DB0FFFF7B2F91F
:100F100048F21F51C5F2EB11A0FB01235A096FF0F3
:100F2000630302FB0300322303EBC000A0FB0101BB
:100F30004FF4F87000EA111000EB0210C1F34211F7
:100F400008442168886010BD9A009B0FFFF792F952
:100F500048F21F51C5F2EB11A0FB01235A096FF0B3
:100F6000630302FB0300322303EB0010A0FB01012B
:100F7000F02000EA511000EB0210C1F343110844C5
:100F80002168886010BD0000FEE7000086B040F6D2
:100F90000004C4F20204FFF73BFBFFF723FF002726
:100FA00043F63000CDE904770097C4F202000168EF
:100FB000002241F00401016001684FF0080801F0CF
:100FC0000401009100990097016841F080010160DF
:100FD000016801F08001009100990097016841F0DB
:100FE00001010160016801F0010100910099009781
:100FF000016841F0020101600068082100F0020070
:10100000009000982046FFF7E9FAA4F5006528460D
:10101000202100224FF02009FFF7E0FA4FF40050A2
:1010200001904FF4041001AECDE90207204631468D
:10103000FFF7EEF9CDF804804FF001082046314665
:10104000CDE902870497FFF7E3F928463146CDE959
:101050000198CDE90377FFF7DBF940F27000A4F5C2
:10106000E231C2F200000C234FF4E13280E8860046
:10107000C0E90377C0E90537C761FFF743FE28B130
:10108000EFF3108072B600BFFEE700BF20460821D4
:10109000FFF79CFA4FF47A70FFF7A6F9F6E7F1EE46
:1010A000100A4FF6FF71C0F2C03120EA010040F093
:1010B0004070E1EE100A70470000000000000000E0
:1010C00001020304060708090000000001020304EE
:1010D000F01000080000002010000000D0010008FF
:1010E0000011000810000020A8060000EC01000814
:1010F00001000000100000000024F40000000000C7
:040000050800019559
:00000001FF
