:020000040800F2
:10000000B80700204D020008AD240008A524000810
:10001000A9240008D50C0008C12500080000000034
:10002000000000000000000000000000B5240008EF
:10003000D90C000800000000B1240008B924000811
:1000400067020008670200086702000867020008EC
:1000500067020008670200086702000867020008DC
:1000600067020008670200086702000867020008CC
:1000700067020008670200086702000867020008BC
:10008000670200086702000867020008000000001D
:1000900000000000000000000000000067020008EF
:1000A000670200086702000867020008670200088C
:1000B00067020008D12400086702000867020008F0
:1000C000670200086702000867020008670200086C
:1000D00067020008670200086702000800000000CD
:1000E00067020008670200086702000800000000BD
:1000F000000000000000000000000000670200088F
:10010000000000006702000867020008670200089C
:1001100000000000000000000000000000000000DF
:10012000670200086702000867020008670200080B
:10013000670200080000000000000000000000004E
:10014000000000000000000000000000670200083E
:1001500067020008670200086702000867020008DB
:1001600067020008670200080000000000000000AD
:10017000000000000000000000000000000000007F
:1001800000000000670200080000000000000000FE
:100190006702000800F002F800F049F80AA090E8B1
:1001A000000C82448344AAF10107DA4501D100F032
:1001B0003EF8AFF2090EBAE80F0013F0010F18BFB6
:1001C000FB1A43F00103184780320000A032000000
:1001D000103A24BF78C878C1FAD8520724BF30C873
:1001E00030C144BF04680C60704700000023002445
:1001F00000250026103A28BF78C1FBD8520728BF37
:1002000030C148BF0B607047662903F0C4800020EE
:1002100070471FB503F0ADF800F0E8FB04000020C4
:10022000002102F0EFFEE0601FBD10B510BD00F030
:10023000DDFC1146FFF7EDFF02F0C4F900F0FBFC16
:1002400003B4FFF7F2FF03BC00F03CFD0948804710
:1002500009480047FEE7FEE7FEE7FEE7FEE7FEE7A8
:10026000FEE7FEE7FEE7FEE704480549054A064BC0
:1002700070470000BD24000895010008B801002067
:10028000B8070020B8030020B803002053EA020C8E
:1002900000F069802DE9F04B4FF00006002B1FBFE6
:1002A000B3FA83F503FA05F424FA05F65E4012BFAB
:1002B0001643B2FA82F502FA05F4C5F120051EBF15
:1002C00022FA05FC44EA0C04203556EA044C4FEAB5
:1002D000144418BF641C4FF000084FF0000990420E
:1002E00071EB030C39D3002919BFB1FA81F701FA78
:1002F00007F6B0FA80F700FA07F6C7F120071EBF2D
:1003000020FA07FC46EA0C062037B6FBF4FCA7EB04
:100310000507103F07F01F0BCBF120062CFA06F65D
:100320000CFA0BFB44BFB3460026202FA4BF5E4649
:100330004FF0000B5BEA060C08BF4FF0010B19EB06
:100340000B0948EB0608ABFB027C06FB02CC0BFB5F
:1003500003CCC01B71EB0C01C1E70B4602464146C2
:100360004846BDE8F08B13B5084318BF4FF0FF3087
:100370000146AFF30080BDE81C4070470FB41CB5C8
:10038000074B06AA7B4469460090059800F015FBD0
:100390000020694600F024FB1CBC5DF814FB000043
:1003A0005906000070B5044685690068C10601D58C
:1003B000302600E02026C00707D070BDD4E9012117
:1003C00030469047206A401C20626D1EF6D570BDF5
:1003D00070B5044685690078C00707D170BDD4E9BF
:1003E000012120209047206A401C20626D1EF6D516
:1003F00070BD2DE9F0474FF0000A89460446C0F869
:1004000020A02046E1688847002876D0252806D01D
:10041000D4E901219047206A401C2062F1E7E1689D
:10042000204600258847C4F81CA006460027C4F8CB
:1004300018A02A2E09D0304602F0DCFD38B304EBB8
:100440008708303EC8F8186019E059F8041B2046A8
:1004500004EB87029161E1688847012F064618D1B5
:10046000E069002820DA25F020051DE0D8F8180002
:1004700000EB800006EB40003038C8F8180020463A
:10048000E1688847064602F0B5FD0028EED1012F4D
:100490000AD02E2E08D12046E16888477F1C0646E8
:1004A000022F45F02005C4DBA069002803DA404292
:1004B00045F00105A061E80701D025F01005B6B1AF
:1004C000A6F14100192802D8203645F400654A46B5
:1004D0003146204625604D46FFF796FE58B101286B
:1004E00006D0ED1D25F0070000F1080989E704E0BA
:1004F00005F1040985E730468AE7206ABDE8F08700
:1005000010B5431C02E010F8011B71B18107FAD14C
:100510004FF0013202C88C1A8C4314EAC211F9D090
:10052000C01A0A0603D0C01E10BDC01A10BD0A04AE
:1005300001D0801E10BD0902FCD0401E10BD4FF03E
:10054000000200B5134694469646203922BFA0E823
:100550000C50A0E80C50B1F12001BFF4F7AF09072F
:1005600028BFA0E80C5048BF0CC05DF804EB890020
:1005700028BF40F8042B08BF704748BF20F8022B63
:1005800011F0804F18BF00F8012B7047704770477B
:1005900070472DE9FF4F0C461E464FF0FF378BB0DA
:1005A000D2E90001DDF860800A908A46C1F30A555D
:1005B00005B93D46002108464FF00000BAF1000F92
:1005C00000F4400005DA00EB80004FF4400101EA3E
:1005D00050004FEA9059B9F1010F00DDB9460A9871
:1005E00050EA4A000ED044F61050A5F2FF354543BC
:1005F0002F14B8F1000F1ED07542291E1EDDC9F15F
:1006000000021CE0B8F1010F4FF0000001D03021D2
:1006100003E0F24305E02154401CB042FBDB3046CE
:100620000022002121540B99C1F80880C1E9002063
:100630000FB0BDE8F08FBD1B6D1CDEE74A4600DA47
:10064000694206A800F05CFA06AB93E8070003AB2A
:1006500083E8070050460A9902F0EBF88DE807009E
:10066000A0F500501F3800900398002D0ADD42F2DB
:100670001F014A460844002303A90390684602F07C
:1006800055FB09E0A0F500504A461F38002303A996
:100690000390684602F05FFB8DE807000004000C41
:1006A00003D04FF0FF30410800E01046B8F1000FD2
:1006B00003D00022009215461EE0751E05D400F0FE
:1006C00099F9303262556D1EF9D5B34601220843BF
:1006D00002D000227F1C04E02078302801D10022C3
:1006E0007F1E002A099784D01DE0112D07DA00F043
:1006F00081F9303262556D1C50EA0102F5D1084390
:1007000002D00098C8B10EE00021681E05E0235C0D
:10071000625C63542254401E491C8142F7DBAB46A5
:10072000A81B401E0990002004F80B000B98099AA2
:10073000C0F80880C0E9002B7AE711264FF00008C6
:1007400057E72DE9F04F88460446D21D22F00701F5
:1007500091B0D1E90001CDE90A0102F033FC024673
:100760000B98C00F01D02D2007E02068810701D52C
:100770002B2002E0202101EAC000032A099001D0C9
:10078000072A05DB03464146204600F079F90BE1D4
:100790002078800601D5E06900E00620B8F1650FF9
:1007A000814606D0B8F1660F18D0B8F1670F70D146
:1007B00031E00020B9F1110F009001DB112301E0BD
:1007C00009F101030AAA01A90CA8FFF7E2FEDDE97D
:1007D0000C70002609F10105834647E001204B46D5
:1007E00000904FF000470AAA01A90CA8FFF7D1FE1C
:1007F000DDE90DB00C995D46002610B909F1010044
:100800000D18B9EB050003D4C0F1FF3609F101055D
:10081000A5EB09002BE0B9F1010F01DA4FF0010956
:100820000020B9F1110F0090484601DD112300E0CE
:1008300003460AAA01A90CA8FFF7ABFEDDE90C707C
:100840004D4600268346207800070AD4AB4500DADF
:100850005D4601A8012D04DD411911F8011C302964
:1008600007D04F4502DA17F1040F04DA012082465F
:100870000FE06D1EEEE7002F02DCED1B3E4403E0AF
:10088000781CA84200DD7D1CB81B00F1010A4FF066
:1008900000472078000703D4AA4501DB4FF0FF3A58
:1008A0000021B7F1004F0DF143088DF8431024D01B
:1008B00002202B23002F01DA7F422D230A21021E62
:1008C000A0F1010000DC5FB197FBF1FC97FBF1F2B6
:1008D00001FB1C7C17460CF1300C08F801CDEEE74B
:1008E000A8F1010003702188090501D5452100E028
:1008F0006521A0F1010800F8011C09980FA9A1EBDE
:100900000807FF1D00B10120411901EBEA70A16940
:100910003844081A401EA0612078C00602D4204640
:10092000FFF740FD099828B1D4E901219047206ADA
:10093000401C20622078C00622D52046FFF732FDF9
:100940001EE0002E04DBB34502DD01A8805D00E05F
:100950003020D4E901219047206A401C2062761C97
:10096000AAF101005FEA000A0AD100F03FF8C0686E
:100970000168405CD4E901219047206A401C206254
:10098000281EA5F10105DCDC07E0D4E9012118F8F7
:10099000010B9047206A401C2062381EA7F1010716
:1009A000F3DC2046FFF714FD032011B041E6000000
:1009B00001694A1C02610878704700B58FB0CDE923
:1009C00001310021059105497944CDE90310114613
:1009D0006846FFF70EFD0FB000BD0000E5FFFFFF0A
:1009E0000A6802F8010B0A6070470000004870476F
:1009F0003000002030B5B0F10A0271F100034FEA77
:100A0000900E4EEA817EB0EB0E0061EB91014FEA51
:100A1000101E4EEA017E10EB0E0041EB11114FEA61
:100A2000102E4EEA016E10EB0E0041EB11214FEA41
:100A3000104E4EEA014E10EB0E0041EB11414018F2
:100A400041F100014FEAD00040EA41704FEAD10184
:100A50004FEA810444EA907410EB800544EB0104F2
:100A60006D1944EB0404521BA3414FF0000348BF2F
:100A70000A3200D530BD401C41F1000130BD0000FC
:100A80002DE9F0411F46044603260168072A01F4B8
:100A9000006004DB08B116A505E016A503E008B167
:100AA00015A500E015A521F010002060A069C01E6A
:100AB000A0610FB1401EA0612046FFF773FC4FB14B
:100AC000D4E9012138469047206A401C2062C01CAE
:100AD000206206E0206AFAE7D4E9012115F8010B4B
:100AE0009047761EF8D22046FFF772FCBDE8F081F1
:100AF0004E414E006E616E00494E4600696E6600C2
:100B00002DE9F047814616468AB0354878440DC82D
:100B10008DE80D0032487844801C03AC0DC884E891
:100B20000D0041F69B300844372190FBF1F290FB19
:100B3000F1F5A5F1800501FB12041B3C02D56442CE
:100B4000012000E00020DFF898A080460027FA444A
:100B5000AAF1BE0A0EE0E0070AD03246684607EB6B
:100B6000470101230AEB810102F0F5F88DE8070047
:100B700064107F1C002CEED1194F7F44AE3F19E06A
:100B8000E80715D007EB04100DF1180A90E80E00E5
:100B90008AE80E00C068F04201D1981908903246E8
:100BA000012306A903A802F0D6F803AB83E80700E7
:100BB0006D10641C002DE3D14FF0010332466946ED
:100BC000B8F1000F03A802D002F0B0F801E002F083
:100BD000C2F8C9E90001C9F808200AB0BDE8F087E9
:100BE0000829000000487047100000207546FFF7F4
:100BF000F9FFAE4605006946534620F007008546DA
:100C000018B020B5FFF730FBBDE820404FF00006DC
:100C10004FF000074FF000084FF0000BAC46ACE877
:100C2000C009ACE8C009ACE8C009ACE8C00921F0D3
:100C300007018D46704710B50446AFF3008020468B
:100C4000BDE81040FFF7FCBA30B44FF0013C50F85B
:100C5000042B51F8043BCCFA52F4D51A20D1FCB93C
:100C600050F8042B51F8043BCCFA52F4D51A17D1A2
:100C7000B4B950F8042B51F8043BCCFA52F4D51A0D
:100C80000ED16CB950F8042B51F8043BCCFA52F455
:100C9000D51A05D1002CDAD030BC4FF000007047D7
:100CA00029BAB1FA81F111F01801D1F12000844084
:100CB000F2D1CA40CB4012F0FF0213F0FF0330BC68
:100CC000D01A704701491820ABBEFEE7260002008B
:100CD00070470000FEE700007047000070B581B06B
:100CE0000022009290F83C20012A03D102210846FC
:100CF00001B070BDD1F800E00122BEF10A0F80F80A
:100D00003C200BD31FFA8EF25200066812FA8EF2C4
:100D1000A2F11E0306F10C0205E000BF06680EEB0F
:100D20004E0306F110024FF0070C15680CFA03F49D
:100D3000A54315608D68146805FA03F32343136017
:100D40004968062906D801EB8101053906F134020C
:100D50000AE000BF0C2901EB810187BF413906F190
:100D60002C02233906F130021F2314688B4024EA39
:100D7000030342F2043C1360C4F2010C1FFA8EF329
:100D8000146803FA01F1ACF5417321439E421160EE
:100D90003ED1BEF1120F07D1DCF8001041F4800102
:100DA000CCF8001034E000BF2EF0010110292FD143
:100DB000DCF80010BEF1100F41F40001CCF8001077
:100DC00026D140F20801C2F2000109684DF68362A3
:100DD000C4F21B32A1FB0212910C01EB810149000C
:100DE00000910099A1B1009901390091009979B160
:100DF000009901390091009951B100990139009190
:100E0000009929B100990139009100990029EAD18E
:100E1000002180F83C10084601B070BD0068C06C2D
:100E200070470000002804BF0120704710B5044639
:100E3000006C00283ED0206CC00645D4206C41F2E6
:100E400002118843023042F204312064C4F20101ED
:100E5000086820F4403008600A6894E809101A43D2
:100E6000D4F810E00A604168012321F480714160E8
:100E70004168C0F6007341EA0E214160416821F0EB
:100E800040714160416841EA0C014160816821F490
:100E900000618160E168826811438160A16A8268B3
:100EA000994222F070628260826813D122F0405130
:100EB00019E000BF204600F065F80020606484F867
:100EC0003C00206CC006B9D50120002184F83C10FC
:100ED00010BD00BF11438160816821F040518160E5
:100EE000E16A826811438160816821F002018160BA
:100EF0008168227E94F8203041EA42018160416895
:100F000083B141F40061416041684EF2000221F476
:100F100060414160616ACFF6FF72436802EB413184
:100F2000194301E021F400614160C16A40F2000C04
:100F300021F47001C162E2696169CFF6F07CC36A95
:100F40000CEB02521A43C262826822F40072826081
:100F500094F83020836843EA42228260826822F457
:100F600080628260826842EA812181600020606440
:100F7000216C012262F301012164002184F83C10FC
:100F800010BD000080B586B042F200010068C4F2D6
:100F90000101002288420592049201D006B080BD72
:100FA00043F630000092C4F20200436943F48073B8
:100FB0004361436903F480730093009B00920368CC
:100FC00043F001030360006800F001000090009806
:100FD000022001900320CDE9020201F5604001A941
:100FE00000F006F906B080BD70B5044600680D46F5
:100FF0008268520544BF80685FEAC05038D400F070
:10100000DBF921680A68920749D40646681C3CD07F
:10101000DDB90868800721D5086880073FD40868D3
:1010200080071BD50868800739D40868800715D564
:101030000868800733D4086880070FD508688007E0
:10104000E7D52CE00868800729D400F0B5F9801BAB
:101050002168A842F6D908688007F3D4206C40F0D4
:1010600004002064002084F83C00032070BD00BF11
:10107000206C40F020002064002084F83C00012017
:1010800070BD00BF0868800709D40868800706D4CF
:10109000086880075CBF08685FEA8070F2D56FF06F
:1010A00012000860206C40F400702064886810F022
:1010B000405F01D1207E08B1002070BDC86A10F4E5
:1010C000700F02D088684005F6D4206C20F4807040
:1010D0002064206CC004EFD4206C40F00100206438
:1010E000002070BD10B581B00021009190F83C1037
:1010F000012903D1022001B010BD00BF0468012105
:1011000080F83C10214651F8083FDB0729D10B68D5
:101110004DF6836243F001030B6040F20803C2F214
:1011200000031B68C4F21B32A3FB02239A0C02EBE0
:1011300042020092009AA2B1009A013A0092009AEB
:101140007AB1009A013A0092009A52B1009A013A9B
:101150000092009A2AB1009A013A0092009A002A5D
:10116000EAD10A68036CD2070AD143F01001016486
:1011700000F1440101200A681043086034E000BF18
:1011800040F2017223EA020202F580720264626890
:10119000520504D5026C012363F30D320264026C24
:1011A0004FF0000C0023D20444BF426C22F006032F
:1011B00042F2000E436480F83CC06FF02200C4F29B
:1011C000010E2060DEF80403C00609D074450BD17F
:1011D000DEF8080010F0405F06D14FF08040CAE70B
:1011E000086810F0405FF8D0002001B010BD00008A
:1011F0002DE9F04F82B000F13E4241F2000502F1CC
:10120000FF77C4F2020507224FEAB726A84208BFBB
:101210000422042E38BF4FEAB7224FF0010A0024FF
:1012200000274FF00008009208E000BF023708F1E5
:101230000108202F04F1040400F0B4800E680AFABB
:1012400008F916EA090FF1D0D1F804A00AF0030B4F
:10125000ABF10106012E17D80322866802FA07FEB9
:10126000CA6826EA0E06BA40324382604268CAF370
:10127000001522EA090205FA08F54FEA480C6FEA60
:101280000E062A4342600BE00322BA40D643BBF16C
:10129000030FBC4604D1BC464FF0030B22E000BF55
:1012A000C2688D68324005FA0CF52A43BBF1020F83
:1012B000C26017D16FF0030202EA5802024404F040
:1012C0001C030F25D2F820E005FA03FA0D692EEA77
:1012D0000A0E05FA03F343EA0E031362D1F804A0E1
:1012E0000AF0030B02680BFA0CF332401A431AF4AB
:1012F000403F4FF0010A026098D0002243F64403B9
:101300000192C4F202031A6843F6004E42F480428E
:101310001A601A68C4F2010E02F480420192019A26
:1013200028F003024FF6084C7244CFF6FF7C52F8C7
:101330000C3004F00C060F25B540AB43009D05FAB8
:1013400006F6334342F80C30DEF808204B6842EAD8
:10135000090643F60C4CDD0258BF22EA0906CEF816
:101360000860C4F2010CDCF800209D0242EA090684
:1013700058BF22EA0906CCF80060DEF804209D037D
:1013800042EA090658BF22EA0906CEF80460DEF8F0
:101390000020DB0342EA090658BF22EA0906CEF81C
:1013A000006043E702B0BDE8F08F0000002A08BFEC
:1013B000090481617047000040F2B010C2F20000E1
:1013C0000068704740F2000040F2B011C2F2000025
:1013D000C2F2000100780A681044086070470000FB
:1013E00080B543F60040C4F20200016841F4007188
:1013F0000160016841F480610160016841F480711D
:101400000160032000F086F8002000F005F800F0ED
:1014100027F8002080BD000070B540F20006C2F23F
:10142000000640F208013278C2F200014FF47A73EC
:101430000968B3FBF2F20446B1FBF2F1084600F092
:1014400043FB0F2C4FF0010508D838B94FF0FF309F
:1014500021460022002500F031F87460284670BD56
:1014600082B0002043F640010190C4F202014A68B4
:1014700042F480424A604A6802F480420192019A32
:101480000090086840F080500860086800F08050C4
:1014900000900098072002B000F03CB8002848BF38
:1014A000704700F01F01012202FA01F14EF2001212
:1014B0004009CEF2000242F82010704710B54EF6F7
:1014C0000C5CCEF2000CDCF80030C3F3022E8EF080
:1014D0000704042C28BF0424BEF103034FF0FF3E91
:1014E0000EFA04F438BF0023A14399400EFA03F327
:1014F0009A43114300F00F02043A624409010C328E
:1015000000F16043B0F1FF3FC8BF03F564421170C2
:1015100010BD00004EF60C51CEF200010A684FF6E5
:10152000FF031A4060F30A2242F0806040F0FD7031
:10153000086070472DE9F041002800F08B8043F6E9
:101540000808C4F202080446D8F8F8030D4600F073
:101550000700884207D288F8F853D8F8F80300F05B
:101560000700A84276D12068810717D5410705D525
:10157000D8F8001041F4E051C8F80010010705D573
:10158000D8F8001041F46041C8F80010D8F80010F5
:10159000A26821F0F0011143C8F80010C0073FD144
:1015A000D8F8F80300F00700A84207D988F8F853E4
:1015B000D8F8F80300F00700A8424BD12068410793
:1015C00007D5D8F80010E26821F4E0511143C8F8BB
:1015D0000010000708D5D8F80000216920F4604009
:1015E00040EAC100C8F8000000F07CF8D8F800100C
:1015F00043F23042C1F30311C0F60002515C40F2E5
:10160000080220FA01F140F20400C2F20000006872
:10161000C2F200021160FFF7FFFE0020BDE8F0817A
:101620006068811E022907D258F8081C89015CBF36
:101630000120BDE8F08111E0012807D158F8081C0D
:1016400089035CBF0120BDE8F08107E058F8081C61
:10165000890703D40120BDE8F08100BFD8F800104D
:1016600021F003010843C8F80000FFF7A5FE064675
:1016700041F28837D8F80000616800F00C00B0EB48
:10168000810F8DD0FFF798FE801BB842F2D903205E
:10169000BDE8F08140F2080043F60801C2F2000004
:1016A000C4F202010068096843F24042C1F382219A
:1016B000C0F60002515CC8407047000040F20800CC
:1016C00043F60801C2F20000C4F202010068096892
:1016D00043F24042C1F34231C0F60002515CC840BF
:1016E0007047000010B543F60404C4F202046068B9
:1016F00000F00C0142F200400829C0F2F40007D0CB
:10170000042918BF10BD41F20020C0F27A0010BDBC
:10171000216801F03F02216823684902C3F3881160
:1017200006D4A1FB00010023FEF7B0FD07E000BFD7
:1017300041F20020C0F27A004843B0FBF2F0216889
:101740000222C1F3014102EB4101B0FBF1F010BDF7
:101750002DE9F04182B000286AD00446007843F6B3
:101760000006C007C4F202060BD0B06800F00C00FF
:10177000042840F0A1803068800302D5606800280A
:1017800056D0207880071AD5B06810F00C0F09D019
:10179000B06800F00C00082840F0A8807068400293
:1017A00000F1A4803068800702D5E06801283FD1AD
:1017B0003068216920F0F80040EAC10030602078EC
:1017C000000739D4207840074ED4A5695DB3B068CE
:1017D00000F00C00082840F0BD80012D28D0706872
:1017E000E16900F480028A4222D1216A00F03F02BE
:1017F0008A421DD147F6C071626A0140B1EB821F77
:1018000016D1A26A0023CFF6FF7303EBC23200F4B5
:1018100040316FF30F0291420AD1E16A00F070602B
:10182000B0EB016F04D1002002B0BDE8F08100BF31
:10183000012002B0BDE8F0816069002840F200009C
:10184000C4F2472076D00121C0F8801EFFF7B4FD16
:10185000054600BF706F8007B4D4FFF7ADFD401B95
:101860000228F7D9DDE000BF306C10F080580AD1B3
:1018700000200190306C40F080503064306C00F0FB
:1018800080500190019847F20007C4F200073868C1
:10189000C00541D4386840F480703860FFF78CFD93
:1018A000054600BF3868C00536D4FFF785FD401BEC
:1018B0000228F7D9B5E000BFB06800F00C00082896
:1018C00003D1706840023FF556AF6068B0F5803FC5
:1018D00007D0B0F5A02F40F08D80306840F4802014
:1018E0003060306840F4803030608DE0E06800287F
:1018F00052D00020C4F2472001210160FFF75CFDB7
:10190000054600BF306880073FF552AFFFF754FD32
:10191000401B0228F6D984E0A068012805D00528DC
:101920004ED1306F40F004003067306F40F001005E
:1019300030674FE00021C0F8801EFFF73DFD0546EF
:10194000706F80077FF53EAFFFF736FD401B022822
:10195000F6D966E00027C4F2472700203866FFF773
:101960002BFD022D05460BD1306880015ED5FFF7B7
:1019700023FD401B02284FF00300F5D954E700BFB8
:10198000306880017FF54FAFFFF716FD401B02283E
:101990004FF00300F4D947E70020C4F247200021AC
:1019A0000160FFF709FD0546306880077FF507AF46
:1019B000FFF702FD401B02284FF00300F4D933E784
:1019C000316F002821F001013167316F21F00401EE
:1019D00031674DD0FFF7F0FC054641F2883700BF74
:1019E000306F800756D4FFF7E7FC401BB842F7D9A9
:1019F00017E000BF3168002821F480313160316880
:101A000021F4802131604FD0FFF7D6FC054600BF9E
:101A1000306880033FF5B5AEFFF7CEFC401B64286D
:101A2000F6D9032002B0BDE8F08100BF04F11C0527
:101A30002FCD08430021CFF6FF7140EA821001EB61
:101A4000C3316FF30F0140EA056008437060012065
:101A50003866FFF7B1FC0446306880013FF5E3AE1D
:101A6000FFF7AAFC001B02284FF00300F4D9DBE6C5
:101A7000FFF7A2FC054641F2883700BF306F8007B0
:101A800008D5FFF799FC401BB8424FF00300F5D989
:101A9000CAE600BFB8F1000F7FF497AE306C20F0BB
:101AA0008050306491E600BFFFF786FC054600BF1A
:101AB000306880037FF565AEFFF77EFC401B64282D
:101AC0004FF00300F4D9AFE6411E0020B0EB116FD8
:101AD0001CBF012070474EF21002CEF2000251608E
:101AE0004EF62351CEF20001F0230B7007219060D7
:101AF00011607047704700007047000010B590F803
:101B00003C20012A4FF002023ED080F83D200268BE
:101B1000D2F804E0D2F808C00C682EF0700323431A
:101B200040F6FF34C4F20004A242536010DCB2F16C
:101B3000804F1ED040F20043C4F200039A4218D0F6
:101B400040F60003C4F200039A4212D016E000BF30
:101B500040F60043C4F200039A420AD044F2000364
:101B6000C4F201039A4204D00023C4F201039A4252
:101B700004D149682CF080031943916001210022AF
:101B800080F83D1080F83C20104610BD002804BFAE
:101B90000120704710B5044690F83D0028B9002098
:101BA00084F83C00204600F08FF8022084F83D00C5
:101BB000206840F2FF730268C4F2000340F2000C98
:101BC0009842C4F2010C1DDD40F60001C4F2000190
:101BD000884220D060451ED040F60041C4F200018A
:101BE000884218D04FF6FF71C4F2000188421CDC15
:101BF000984225DCB0F1804F3AD040F20041C4F267
:101C0000000133E0B0F1804F05D040F20041C4F252
:101C100000018842E6D1A16822F070020A434FF623
:101C2000FF71C4F200018842E2DD44F2FF31C4F2E8
:101C30000101884210DC60451AD044F2000113E033
:101C400040F60001C4F20001884211D040F6004184
:101C5000C4F200010AE000BF44F60001C4F2010131
:101C6000884205D044F20041C4F20101884203D108
:101C7000216922F440720A43A36922F08001D4F85A
:101C800004E0E268194360450160C262C0F828E0E0
:101C900002D16169CCF8301001214161002084F843
:101CA000461084F83E1084F83F1084F8401084F801
:101CB000411084F8421084F8431084F8441084F8EA
:101CC000451084F83D1010BD80B582B0006840F228
:101CD0000041C4F2000188421CBF02B080BD002058
:101CE000019043F64000C4F202000168002241F076
:101CF000020101600068002100F0020001900198DB
:101D00001D20FFF7DBFB1D2002B0BDE88040FFF780
:101D1000C5BB000090F83D1001291CBF0120704791
:101D2000022180F83D10006840F6FF32C168C4F21D
:101D30000002904241F00101C1600FDCB0F1804F20
:101D40001DD040F20041C4F20001884217D040F695
:101D50000001C4F20001884211D017E040F60041B2
:101D6000C4F2000188420AD044F20001C4F2010129
:101D7000884204D00021C4F20101884206D1816862
:101D800001F00701062904BF00207047016841F0F7
:101D9000010101600020704780B590F83C20012AC5
:101DA0004FF0020200F0C28080F83D20D0F800C061
:101DB0004FF67772DCF8083023EA0202CCF80820EC
:101DC0000B684F2B28DC1F2B44DD202B45D0302BFC
:101DD00043D0402B40F0AC80D1F804E0C968DCF877
:101DE0002030DCF8202022F00102CCF82020DCF8A2
:101DF000182022F0F00242EA011123F00A0242EA1E
:101E00000E02CCF81810CCF82020DCF8081041F0B5
:101E1000470121F0300180E06F2B27DDB3F5005F33
:101E200048D0B3F5805F7AD0702B40F08180D1E943
:101E300001E3C968DCF8082043EA0E0322F47F427C
:101E400043EA01211143CCF80810DCF8081041F0F6
:101E5000770162E00BB1102B6AD1DCF8081021F099
:101E60007001194341F0070157E000BF502B35D0F6
:101E7000602B5DD1D1F804E0C968DCF8203023F094
:101E80001003CCF82030DCF81830DCF8202023F4E4
:101E9000704322F0A00243EA013142EA0E12CCF86C
:101EA0001810CCF82020DCF8081041F0670121F070
:101EB000100132E0D1E901E3C968DCF8082043EA07
:101EC0000E0322F47F4243EA01211143CCF80810AB
:101ED000DCF8081041F480411FE000BFD1F804E0B5
:101EE000C968DCF82030DCF8202022F00102CCF8B0
:101EF0002020DCF8182022F0F00242EA011123F041
:101F00000A0242EA0E02CCF81810CCF82020DCF8C5
:101F1000081041F0570121F02001CCF808100022F0
:101F2000012180F83D10002180F83C10104680BD52
:101F30000122F5E77047000010B501680446086902
:101F4000800744BFC8685FEA807039D408694007D9
:101F500044BFC8685FEA40703ED40869000744BFC8
:101F6000C8685FEA007045D40869C00644BFC86805
:101F70005FEAC0604AD40869C0071CBFC8685FEA4E
:101F8000C07051D10869000644BFC8685FEA0060AC
:101F900052D40869400644BFC8685FEA406053D421
:101FA0000869800646BFC8685FEA806010BD6FF0B0
:101FB000200220460A61BDE81040FFF79DBD00BF2A
:101FC0006FF002000861012020778869800743D004
:101FD0002046FFF7AFFF45E06FF0040008610220E4
:101FE0002077886910F4407F40D02046FFF7A2FF99
:101FF00042E000BF6FF00800086104202077C86944
:1020000080073DD02046FFF795FF3FE06FF01000BE
:10201000086108202077C86910F4407F3AD0204634
:10202000FFF788FF3CE000BF6FF001000861204629
:1020300000F03EF82168A5E76FF0800008612046B7
:10204000FFF758FD2168A4E76FF0400008612046C3
:1020500000F080F82168A3E7204600F025F820462C
:1020600000F024F82168002020776FE7204600F078
:102070001BF8204600F01AF82168002020776CE752
:10208000204600F011F8204600F010F821680020EA
:10209000207769E7204600F007F8204600F006F8B0
:1020A00021680020207766E7704700007047000035
:1020B000B0B540F22014C2F200042046FFF712F837
:1020C00020460121FEF790FF2046FEF7A7FE00EE16
:1020D000100A40F27005B8EE400AC2F2000585ED24
:1020E000000A95ED000A9FED181A80EE010A10EE25
:1020F000100A01F0CDF89FED120B53EC102B00F0FD
:10210000C9FF00F095FF6860686801F0C1F840F20F
:10211000BC04C2F2000402460B460CA12046FEF7A6
:102120002DF92046FEF7ECF905F1080182B20846C8
:1021300021460123BDE8B04000F074B800BF00BFE5
:102140006666666666660A4000F07F4525342E3274
:10215000660D0A0070470000002804BF0120704788
:1021600010B5044690F83D0028B9002084F83C00E2
:10217000204600F021F8242084F83D002068C16842
:1021800021F40051C160204600F0A8F920680169DF
:1021900021F490410161416921F02A014161C16846
:1021A00041F40051C16000202021206484F83D10DA
:1021B00084F83E1010BD000080B586B0016841F281
:1021C0000040C4F20100814202D006B080BD00BFD1
:1021D000002143F630020191C4F20202536900F576
:1021E000744043F020035361536903F020030193CB
:1021F000019B0191136843F004031360126802F01D
:1022000004020192019AC02201920222CDE9022128
:10221000032104910821059101A9FEF7E9FF06B009
:1022200080BD00002DE9F04381B0044690F83D00E8
:1022300020280DD10F4600294FF0010000F0DD806D
:102240001646002A00F0D98094F83C00012803D1FA
:10225000022001B0BDE8F083012084F83C004FF07B
:10226000000921201D46C4F8409084F83D00FFF786
:10227000A3F8A684E684A1680646B1F5805F07D17D
:10228000206900281CBF38464F46B846074601E083
:102290004FF0000884F83C90E18C2068002900F0A1
:1022A0008B8005F101090AE047B317F8011B416073
:1022B000E18C0139E184E18C002900F07D80016826
:1022C0000906F1D4B9F1000F0AD0EDB1FFF774F8A7
:1022D000801BA84218D8206801680906F6D5E3E7F4
:1022E00001680906E0D4016809065CBF01685FEA7D
:1022F0000161D9D401680906F2D5D5E738F8021B87
:1023000000276FF35F21D2E7206850E8030F2168B0
:1023100020F4D07041E80302BAB3206850E8030FFC
:10232000216820F4D07041E8030272B3206850E8BD
:10233000030F216820F4D07041E803022AB320681B
:1023400050E8030F216820F4D07041E80302002A0E
:10235000DAD11AE0206850E8050F216820F001006A
:1023600041E80502DAB1206850E8050F216820F045
:10237000010041E8050292B1206850E8050F21688C
:1023800020F0010041E805024AB1206850E8050F3D
:10239000216820F0010041E80502002ADAD120205E
:1023A00084F83D0084F83E00002084F83C000320BF
:1023B00001B0BDE8F08300BF0168490619D4FDB142
:1023C000691C0DD10168490613D4016849065CBF38
:1023D00001685FEA41610CD401684906F2D508E062
:1023E000FEF7EAFF801BA8420AD820680068400672
:1023F000F6D5202084F83D00002001B0BDE8F08330
:10240000206850E8030F216820F4D07041E80302EF
:10241000E2B3206850E8030F216820F4D07041E84F
:1024200003029AB3206850E8030F216820F4D070AB
:1024300041E8030252B3206850E8030F216820F4FA
:10244000D07041E80302002ADAD11FE0206850E88A
:10245000050F216820F0010041E80502002A9ED006
:10246000206850E8050F216820F0010041E80502CE
:10247000002A3FF494AF206850E8050F216820F04F
:10248000010041E80502002A3FF489AF206850E8C6
:10249000050F216820F0010041E80502002AD5D18E
:1024A0007DE70000FEE70000FEE70000FEE7000019
:1024B0007047000070470000FEF784BF4EF688505A
:1024C000CEF20000016841F4700101607047000025
:1024D00040F26810C2F20000FFF72EBD10B50446AE
:1024E0000068D4E902C22369016921F44051114313
:1024F0000161626943EA0C01E3691143C26819434F
:1025000049F20C639A431143C1604169A26921F405
:10251000407141F20043114340F48062C4F2010370
:102520009A42416102D1FFF7C9F801E0FFF7B2F822
:10253000E16963681922B1F5004FA0FB02011FD1C8
:102540005A00DB0FFDF7A2FE48F21F51C5F2EB1156
:10255000A0FB01235A096FF0630302FB030032233F
:1025600003EBC000A0FB01014FF4F87000EA11106A
:1025700000EB0210C1F3421108442168886010BDCD
:102580009A009B0FFDF782FE48F21F51C5F2EB1136
:10259000A0FB01235A096FF0630302FB03003223FF
:1025A00003EB0010A0FB0101F02000EA511000EB4A
:1025B0000210C1F3431108442168886010BD000077
:1025C000FEE7000094B043F6300547F20006C4F27F
:1025D0000205C4F20006FEF703FF08AC201D2C2103
:1025E000FDF7ADFF00270697CDE90477CDE9027727
:1025F00001972869022140F080502861286900F085
:102600008050019001980197306861F38F303060FD
:10261000306800F440400190019801200B90102098
:102620000C90204608910E97FFF792F820B1EFF337
:10263000108072B6FEE700BF0F20CDE902074FF40D
:102640008050CDE9050702A800210497FEF772FF2C
:1026500020B1EFF3108072B6FEE700BF0027CDE98E
:102660000B770297286806F5C83440F0040028600C
:102670002868202100F00400029002980297286840
:10268000002240F08000286028684FF0200800F009
:102690008000029002980297286840F001002860AC
:1026A000286800F00100029002980297286840F024
:1026B00002002860286800F002000290029820467C
:1026C000FEF774FE4FF4005008904FF4041008AD6C
:1026D000CDE9090706F5CC302946FEF789FD0C2027
:1026E00008900220CDE9090707200C9020462946D2
:1026F0000B97FEF77DFDCDF820804FF001082046B6
:102700002946CDE909870B97FEF772FD40F22010AC
:10271000012206F53041C2F20000C0F600720B97AC
:10272000077680F82070C0E90A27C0F81C8080F87E
:102730003070C0E90017C0E90277C0E90478FEF7FD
:1027400071FB28B1EFF3108072B600BFFEE700BF47
:1027500040F22010C2F2000008A9CDE908880A97CB
:10276000FEF7BCFA20B1EFF3108072B6FEE700BFAF
:1027700040F2681040F200420021C2F20000C4F2B0
:10278000000243F67F6363270B91CDE90911CDE980
:102790000211C0E90023C0E9021701618161FFF75E
:1027A000F5F928B1EFF3108072B600BFFEE700BF65
:1027B0004FF48050089040F26810C2F2000008A95F
:1027C000FFF7EAFA20B1EFF3108072B6FEE700BF20
:1027D00040F26810C2F2000002A9FFF78FF928B199
:1027E000EFF3108072B600BFFEE700BF40F270004A
:1027F00006F52441C2F2000040F8081F4FF41651BC
:1028000000220C23C0E90112C0E90322C0E905320D
:10281000C261FFF7A1FC28B1EFF3108072B600BFD0
:10282000FEE700BF40F26810C2F20000FFF772FA44
:10283000FEE75FEA400C08BF91F0000F4FEA8C23DF
:102840004FEAC12243EA51514FEA1C5018BF00F52C
:10285000F0404FEA300018BF41F000415FEA6C5C85
:1028600000F02980BCF1FF3F08BF40F08040704776
:10287000130C06BF12044FF0100C4FF0000C130E97
:1028800004BF12020CF1080C130F04BF12010CF16B
:10289000040C930F04BF92000CF1020CD30F04BF81
:1028A00052000CF1010C11464FF00002A0F11F0084
:1028B000A0EB0C00704711F0004F08BF704731F0DB
:1028C00000413FF4D5AF0B0C06BF09044FF0100CCC
:1028D0004FF0000C0B0E04BF09020CF1080C0B0F9B
:1028E00004BF09010CF1040C8B0F04BF89000CF12B
:1028F000020CCB0F04BF49000CF1010CCCF12003FA
:1029000022FA03F341EA030102FA0CF2A0EB0C00F5
:1029100000F101007047000023F07F4720F07F4C5A
:1029200080EA030000F00040ACEB070303F57C53A2
:1029300003F1FF032DE9804909B44FEA144324EA67
:1029400003484FEA154B25EA0B4E0FF2042606EB1F
:1029500013273E7803FB0667C7F5000707FB06F65B
:102960004FEAD64606F102064FEA543707FB066CDB
:10297000CCF1005C4FEA1C472CEA074C0CFB06F537
:1029800007FB06F404EB15464FEA961649085FEA82
:10299000320234BF00204FF000404FEAD13706FB2F
:1029A00007FC4FEA1C4C0CFB0BF7D21B03FB0CF78C
:1029B00061EB07010CFB0EF7B0EB074072EB17421F
:1029C0000CFB08F734BFA2EB0742B2EB074261EB06
:1029D00017414FEA0C444FEA910706FB07FC4FEA08
:1029E0001C4C0CFB0BF7B0EBC74072EB573203FBF0
:1029F0000CF734BFA2EBC742B2EBC74261EB5731D1
:102A00000CFB0EF7B0EBC70072EB57720CFB08F72C
:102A100034BFA2EBC702B2EBC70261EB57714FEABA
:102A2000816141EA92114FEA826242EA90124FEAD2
:102A3000806004EBCC04039F4FEAD13706FB07FC10
:102A40004FEA1C4C0CFB0BF7D21B03FB0CF761EBA2
:102A500007010CFB0EF7B0EB074072EB17420CFBC3
:102A600008F734BFA2EB0742B2EB074261EB174114
:102A70004FEA8C5504EB9C244FEA910706FB07FCB8
:102A80004FEA1C4C0CFB0BF7B0EBC74072EB573214
:102A900003FB0CF734BFA2EBC742B2EBC74261EBBA
:102AA00057310CFB0EF7B0EBC70072EB57720CFB03
:102AB00008F734BFA2EBC702B2EBC70261EB577154
:102AC0004FEA816141EA92114FEA826242EA901232
:102AD0004FEA806015EB4C2544F100044FEAD137F2
:102AE00006FB07FC4FEA1C4C0CFB0BF7D21B03FB4D
:102AF0000CF761EB07010CFB0EF7B0EB074072EB34
:102B000017420CFB08F734BFA2EB0742B2EB0742B7
:102B100061EB17414FEA813141EA92414FEA82323B
:102B200042EA90424FEA80304FEA0C7615EB1C15D2
:102B300044F1000448EA03434EEA0B484FF0000E0C
:102B4000B2EB080C71EB030724BF624639464EEB2B
:102B50000E0E4FF0000B0018524149414BEB0B0B8E
:102B6000B2EB080C71EB03077BF1000B24BF62464C
:102B700039464EEB0E0E4FF0000B00185241494102
:102B80004BEB0B0BB2EB080C71EB03077BF1000B6B
:102B900024BF624639464EEB0E0E51EA020718BFBB
:102BA00046F0010616EB0E7655F1000254F10001D5
:102BB00003D5BDE88901BDE80088BDE88901BDE80D
:102BC0000048B619524141EB0101A3F101037047DE
:102BD00080807F7E7D7C7B7A79787776767574735A
:102BE000727171706F6E6E6D6C6C6B6A6A69686819
:102BF000676666656464636362616160605F5F5EAF
:102C00005E5D5D5C5C5B5B5A5A5959585857575624
:102C10005655555554545353525252515150505089
:102C20004F4F4F4E4E4D4D4D4C4C4C4B4B4B4A4ADB
:102C30004A4949494848484747474746464645451F
:102C40004544444444434343434242424241414158
:102C50009C46002B30D477002BD04FEA37071CB5A9
:102C600003B44FF010004FF01001BAF1000F06D07E
:102C7000BCF1000FDCBF40F0080040F008014FF04D
:102C800000000FBCBDE810400BF1010BBBF1010FC0
:102C900008BF5FEA170722BF12F1010211F101011B
:102CA0004FF0004143F1000300F0004043EA000010
:102CB0007047F9D35708D0E746EA06464FEA16466A
:102CC00013F1400F1FDD13F1200FDFBF16430A463B
:102CD000002120335B42BED0C3F1200746EA0646FE
:102CE0004FEA164602FA07F746EA070622FA03F207
:102CF000C3F1200701FA07F742EA070221FA03F1BC
:102D00004FF00003A7E746EA020646EA06464FEA06
:102D1000164646EA0106BCBF46EA0646360C4FF0A8
:102D200000034FF000024FF0000194E72DE9804CC2
:102D300070B49A46934691E8380007C831EA400CCF
:102D400048BF34EA430C03D5FFF7E6FDFFF780FFE9
:102D5000F0BCBDE8008C2DE9804C70B49A469346D7
:102D600091E8380007C810F0804F08BF13F0804F7B
:102D700003D100F005F8FFF76BFFF0BCBDE8008C55
:102D800020F07F4723F07F4C80EA030000F00040F2
:102D900007EB0C03A3F57C53A3F1FE0392F0000FA5
:102DA00000F0B38095F0000F00F077802DE9014925
:102DB0004FEA114021EA00484FEA144624EA064748
:102DC00000FB06FC08FB06F607FB08F818EB0648B4
:102DD0004CEB164C00FB07F718EB07484CEB174081
:102DE0004FEA124B22EA0B4E4FEA154625EA0647F8
:102DF0000BFB06FC0EFB06F607FB0EFE1EEB064E5B
:102E00004CEB164C0BFB07F71EEB074E4CEB174B2E
:102E100018EB0B0840F1000018EB0E0B58EB000804
:102E200040F100008F1A4FF000014FF000063CBF48
:102E3000C943661B14BFB5EB040C00213CBFC9435A
:102E4000F61B4FEA174427EA04454FEA1C472CEAD1
:102E5000074C04FB076205FB07F70CFB05F616EBB6
:102E6000074642EB174204FB0CFC16EB0C4642EB08
:102E70001C421BEB060658EB020241414EEA8E0E45
:102E800046EA9E0601D5BDE80189B619524141EBDB
:102E90000101A3F10103BDE801894FEA144524EAC9
:102EA00005464FEA114721EA074C05FB07F406FBEC
:102EB00007F70CFB06F111EB074144EB174405FB48
:102EC0000CFC11EB0C4144EB1C444FEA124722EA84
:102ED000074C05FB07F206FB07F70CFB06F616EBA3
:102EE000074642EB174205FB0CFC16EB0C4642EB87
:102EF0001C456A1854F1000148BF7047B619524189
:102F000041EB0101A3F10103704795F0000F37D0A9
:102F10004FEA114221EA02464FEA144724EA074CDD
:102F200002FB07F106FB07F70CFB06F414EB074462
:102F300041EB174102FB0CFC14EB0C4441EB1C4130
:102F40004FEA154725EA074C02FB07F506FB07F792
:102F50000CFB06F616EB074645EB174502FB0CFC8F
:102F600016EB0C4645EB1C42121951F1000148BF0B
:102F70007047B619524141EB0101A3F101037047BB
:102F80004FEA144524EA05464FEA114721EA074C67
:102F900005FB07F106FB07F70CFB06F212EB0742F5
:102FA00041EB174105FB0CFC12EB0C4251EB1C41B1
:102FB0004FF0000648BF7047921841EB0101A3F1A2
:102FC0000103704703B401984100009850EAC12002
:102FD00018BF04204A0D18BF40F0010040F2FF72F4
:102FE000B2EB515F08BF40F00200012808BF052086
:102FF00002B0704730380A2801D201207047002003
:103000007047000010B500290AD00878002807D0C2
:1030100005487844FDF718FE002801D0002010BDB7
:103020000248784410BD0000560400004E04000021
:1030300021F0004201F00043A2F16052B2F5801F7E
:1030400028BFD2F17F6C0BD95FEA001C43EAC202B1
:1030500042EB507018BF704728BF20F00100704746
:10306000B2F5801FBCBF184670474FEA410C1CF5F3
:10307000001F02D2084600F089B970B500F0B4F81C
:1030800000000089FFF7F6BF4FF00040A0F5800078
:103090007047000070B5DFF848C11CEA111E1EBF62
:1030A0001CEA13159EEA0C0F95EA0C0F00F06F80D6
:1030B00081EA03044EEAD47EAE4421EA4C1123EAAD
:1030C0004C1341F4801143F48013AEF17F7EA1FBD9
:1030D000024CA0FB0365361955EB0C05A1FB034C14
:1030E0004CF10003A0FB021C16EB0C06654153F1EA
:1030F0000003094218BF46F0010613F4007F0BD10C
:103100004FEA03314FEA053041EA155140EA1650C3
:1031100034036FF003020AE04FEAC3214FEAC520EF
:1031200041EA555140EA5650F4026FF0020202EBB8
:103130002E4201EB025585EACE710AD05FEA440CBB
:1031400018BF24F0004450F1000041F1000120EAD2
:10315000D47040F2FE7C624500D270BDA84214BF1C
:103160004FF080444FF04044002E08BF0024BEF1D1
:10317000806FA8BFA1F1C041BDE8704080F282809D
:1031800001F1C04101F000414FF0000070470CEA2E
:1031900013159EEA0C0F18BF95EA0C0F06D081EAB2
:1031A000030E4FF000000EF0004170BD00F01CF85F
:1031B0008900013E00F007B800F009B84FEA430C5F
:1031C0005FEA5C5C08D081EA030100F05BB84FEA7B
:1031D000410C5FEA5C5CF6D102494FF00000704799
:1031E0000000FF070000F87F0EF1020E2EF0030E24
:1031F0005EF8046B364205D4012A43EB030515F54E
:10320000001F12D8012841EB010C1CF5001F0CD83F
:103210000ED14FEAD17C0CEB4C0C0CF1020C15F5E5
:10322000001F08BF4CEBD37C04E04FF0080C01E01A
:103230004FEAD37C0CEB4C0526FA05F606F00706A0
:10324000B6F1040C06D20EEB860CBDE870404CF0D3
:10325000010C6047DFE80CF0090B02024FF000415F
:10326000A1F500214FF0000070BD1946104601285D
:1032700051EB010418BFD4F5001484BF002001F005
:10328000004170BD0808A0F500114FEA31017047F8
:1032900043004FEAD30C4FEA3C0C43401FBF4007AA
:1032A0000CF1605113F0FE4F70471CF0006F03D11A
:1032B0000CF00041002070470CF0004343EA5070CE
:1032C00040EACC0010B500F00EF800BF00000092FC
:1032D0004FEA0001FFF7D6BF4FF00041A1F50021F2
:1032E0004FF0000070470EF1020E2EF0030E5EF854
:1032F000044B244204D44FEA4102B2F17F4F11D86B
:103300004FEA4003B3F17F4F0CD80ED14FEAD07C87
:103310000CEB4C0C0CF1020CB2F17F4F08BF4CEBE4
:10332000D17C04E04FF0080C01E04FEAD17C0CEBBB
:103330004C0324FA03F404F00704B4F1040C06D29D
:103340000EEB840CBDE810404CF0010C6047DFE848
:103350000CF0070802024FF00040A0F5800010BDFD
:103360000846420018BFD2F1807288BF00F00040CA
:1033700010BDF1EE100A4FF6FF71C0F2C03120EA25
:10338000010040F04070E1EE100A7047FF2141EA71
:10339000D050C0057047FDF7D4B9000002400000CE
:1033A000000000A00000000005400000000000C870
:1033B000000000000C4000000000409C00000000E5
:1033C000194000000020BCBE000000003440000096
:1033D000BFC91B8E00000004B5400000504BCFD089
:1033E0006607E2CF010000006C4100003E8251AA56
:1033F000DFEEA73401000000D9420000DCB5A0E2F6
:103400003A301F97FFFFFFFFB4450000FD25A0C81D
:10341000E9A3C14FFFFFFFFFFF3F00000000008056
:1034200000000000FF3F00000000008000000000DE
:103430000000000000000000010203040607080964
:10344000000000000102030488340008000000208E
:1034500010000000D001000898340008100000207F
:10346000A8070000EC0100081C0000004300000059
:10347000F8FFFFFF0C0000000E0000000F0000002E
:103480002E000000000000000100000010000000FD
:083490000024F400000000001C
:040000050800019559
:00000001FF
