:020000040800F2
:10000000B807002035020008E11E0008D91E0008CC
:10001000DD1E00082D040008092200080000000071
:10002000000000000000000000000000F11F0008B8
:100030003104000800000000E51E0008F51F00085C
:100040004F0200084F0200084F0200084F0200084C
:100050004F0200084F0200084F0200084F0200083C
:100060004F0200084F0200084F0200084F0200082C
:100070004F0200084F0200084F0200084F0200081C
:100080004F0200084F0200084F0200080000000065
:100090000000000000000000000000004F02000807
:1000A0004F0200084F0200084F0200084F020008EC
:1000B0004F0200084F0200084F0200084F020008DC
:1000C0004F0200084F0200084F0200084F020008CC
:1000D000E91E00084F0200084F020008000000005F
:1000E0004F0200084F0200084F0200080000000005
:1000F0000000000000000000000000004F020008A7
:10010000000000004F0200084F020008F51E000822
:1001100000000000000000000000000000000000DF
:100120004F0200084F0200084F0200084F0200086B
:100130004F02000800000000000000000000000066
:100140000000000000000000000000004F02000856
:100150004F0200084F0200084F020008FD2100086E
:100160004F0200084F0200080000000000000000DD
:10017000000000000000000000000000000000007F
:10018000000000004F020008000000000000000016
:100190004F02000800F002F800F03CF80AA090E8D6
:1001A000000C82448344AAF10107DA4501D100F032
:1001B00031F8AFF2090EBAE80F0013F0010F18BFC3
:1001C000FB1A43F00103184760240000802400005C
:1001D000103A24BF78C878C1FAD8520724BF30C873
:1001E00030C144BF04680C60704700000023002445
:1001F00000250026103A28BF78C1FBD8520728BF37
:1002000030C148BF0B6070471FB502F0F3F91FBD46
:1002100010B510BD00F0D0F81146FFF7F5FF01F062
:10022000F5FF00F0EEF803B4FFF7F2FF03BC00F0B7
:10023000F5F800000948804709480047FEE7FEE757
:10024000FEE7FEE7FEE7FEE7FEE7FEE7FEE7FEE786
:1002500004480549054A064B70470000F91F00088D
:1002600095010008B8010020B8070020B80300205D
:10027000B803002053EA020C00F069802DE9F04B2E
:100280004FF00006002B1FBFB3FA83F503FA05F405
:1002900024FA05F65E4012BF1643B2FA82F502FA5E
:1002A00005F4C5F120051EBF22FA05FC44EA0C0442
:1002B000203556EA044C4FEA144418BF641C4FF032
:1002C00000084FF00009904271EB030C39D300296C
:1002D00019BFB1FA81F701FA07F6B0FA80F700FA10
:1002E00007F6C7F120071EBF20FA07FC46EA0C06F6
:1002F0002037B6FBF4FCA7EB0507103F07F01F0BF8
:10030000CBF120062CFA06F60CFA0BFB44BFB346E1
:100310000026202FA4BF5E464FF0000B5BEA060CC0
:1003200008BF4FF0010B19EB0B0948EB0608ABFBBC
:10033000027C06FB02CC0BFB03CCC01B71EB0C0157
:10034000C1E70B46024641464846BDE8F08B13B56F
:10035000084318BF4FF0FF300146AFF30080BDE8FF
:100360001C4070474FF0000200B513469446964675
:10037000203922BFA0E80C50A0E80C50B1F12001B8
:10038000BFF4F7AF090728BFA0E80C5048BF0CC066
:100390005DF804EB890028BF40F8042B08BF7047C4
:1003A00048BF20F8022B11F0804F18BF00F8012B36
:1003B0007047704770477047754600F02BF8AE469F
:1003C00005006946534620F00700854618B020B561
:1003D000FFF73EFFBDE820404FF000064FF000075A
:1003E0004FF000084FF0000BAC46ACE8C009ACE899
:1003F000C009ACE8C009ACE8C00921F007018D468E
:10040000704710B50446AFF300802046BDE81040A9
:10041000FFF709BF0048704710000020014918206D
:10042000ABBEFEE72600020070470000FEE70000BA
:100430007047000070B5866D044600F04FF994F8DF
:10044000351002292ED105462068216C026822F061
:1004500016020260426922F08002426109B9A16C71
:1004600019B1016821F008010160016821F0010162
:1004700001600068C00708D000F030F9401B052873
:1004800018D820680068C007F6D1E06D3F2101FA56
:1004900000F0B060012084F835000020002184F8CD
:1004A000341070BD802060650120002184F8341074
:1004B00070BD00BF20206065032084F83500002156
:1004C00084F8341070BD000090F83510022909D16D
:1004D000052180F835100068016821F001010160F4
:1004E000002070478021416501207047B0B5044667
:1004F00000F0F4F8054640F20000C2F20000007877
:10050000611C18BF044400BF00F0E8F8401BA04283
:10051000FAD3B0BD2DE9F04F82B000F13E4241F276
:10052000000502F1FF77C4F2020507224FEAB72661
:10053000A84208BF0422042E38BF4FEAB7224FF06A
:10054000010A002400274FF00008009208E000BFD5
:10055000023708F10108202F04F1040400F0B480F0
:100560000E680AFA08F916EA090FF1D0D1F804A0CA
:100570000AF0030BABF10106012E17D8032286689F
:1005800002FA07FECA6826EA0E06BA4032438260C3
:100590004268CAF3001522EA090205FA08F54FEA93
:1005A000480C6FEA0E062A4342600BE00322BA4071
:1005B000D643BBF1030FBC4604D1BC464FF0030B3E
:1005C00022E000BFC2688D68324005FA0CF52A436C
:1005D000BBF1020FC26017D16FF0030202EA5802AA
:1005E000024404F01C030F25D2F820E005FA03FAB8
:1005F0000D692EEA0A0E05FA03F343EA0E031362AD
:10060000D1F804A00AF0030B02680BFA0CF3324095
:100610001A431AF4403F4FF0010A026098D00022BA
:1006200043F644030192C4F202031A6843F6004EF3
:1006300042F480421A601A68C4F2010E02F4804249
:100640000192019A28F003024FF6084C7244CFF64B
:10065000FF7C52F80C3004F00C060F25B540AB437C
:10066000009D05FA06F6334342F80C30DEF8082008
:100670004B6842EA090643F60C4CDD0258BF22EAF9
:100680000906CEF80860C4F2010CDCF800209D02D7
:1006900042EA090658BF22EA0906CCF80060DEF8F3
:1006A00004209D0342EA090658BF22EA0906CEF853
:1006B0000460DEF80020DB0342EA090658BF22EAA4
:1006C0000906CEF8006043E702B0BDE8F08F0000F5
:1006D000002A08BF090481617047000040F2B01091
:1006E000C2F200000068704740F2000040F2B01112
:1006F000C2F20000C2F2000100780A6810440860EB
:100700007047000080B543F60040C4F20200016863
:1007100041F400710160016841F480610160016889
:1007200041F480710160032000F086F8002000F0A1
:1007300005F800F027F8002080BD000070B540F2F9
:100740000006C2F2000640F208013278C2F200014F
:100750004FF47A730968B3FBF2F20446B1FBF2F18D
:10076000084600F0EDFD0F2C4FF0010508D838B910
:100770004FF0FF3021460022002500F031F8746070
:10078000284670BD82B0002043F640010190C4F2BB
:1007900002014A6842F480424A604A6802F4804298
:1007A0000192019A0090086840F080500860086843
:1007B00000F0805000900098072002B000F03CB894
:1007C000002848BF704700F01F01012202FA01F122
:1007D0004EF200124009CEF2000242F8201070479B
:1007E00010B54EF60C5CCEF2000CDCF80030C3F312
:1007F000022E8EF00704042C28BF0424BEF103034C
:100800004FF0FF3E0EFA04F438BF0023A143994095
:100810000EFA03F39A43114300F00F02043A6244C4
:1008200009010C3200F16043B0F1FF3FC8BF03F58E
:100830006442117010BD00004EF60C51CEF2000162
:100840000A684FF6FF031A4060F30A2242F0806004
:1008500040F0FD70086070472DE9F041002800F07D
:100860008B8043F60808C4F202080446D8F8F8035F
:100870000D4600F00700884207D288F8F853D8F8F0
:10088000F80300F00700A84276D12068810717D549
:10089000410705D5D8F8001041F4E051C8F8001020
:1008A000010705D5D8F8001041F46041C8F80010E0
:1008B000D8F80010A26821F0F0011143C8F8001028
:1008C000C0073FD1D8F8F80300F00700A84207D9C5
:1008D00088F8F853D8F8F80300F00700A8424BD185
:1008E0002068410707D5D8F80010E26821F4E051EC
:1008F0001143C8F80010000708D5D8F80000216996
:1009000020F4604040EAC100C8F8000000F07CF824
:10091000D8F8001042F20E62C1F30311C0F60002D3
:10092000515C40F2080220FA01F140F20400C2F2E8
:1009300000000068C2F200021160FFF7FFFE002015
:10094000BDE8F0816068811E022907D258F8081CB2
:1009500089015CBF0120BDE8F08111E0012807D1C9
:1009600058F8081C89035CBF0120BDE8F08107E04E
:1009700058F8081C890703D40120BDE8F08100BFA6
:10098000D8F8001021F003010843C8F80000FFF771
:10099000A5FE064641F28837D8F80000616800F0ED
:1009A0000C00B0EB810F8DD0FFF798FE801BB84292
:1009B000F2D90320BDE8F08140F2080043F60801B7
:1009C000C2F20000C4F202010068096842F21E622D
:1009D000C1F38221C0F60002515CC840704700009C
:1009E00040F2080043F60801C2F20000C4F202011E
:1009F0000068096842F21E62C1F34231C0F600028B
:100A0000515CC8407047000010B543F60404C4F2BE
:100A10000204606800F00C0142F200400829C0F2B4
:100A2000F40007D0042918BF10BD41F20020C0F225
:100A30007A0010BD216801F03F0221682368490255
:100A4000C3F3881106D4A1FB00010023FFF712FCB9
:100A500007E000BF41F20020C0F27A004843B0FB3B
:100A6000F2F021680222C1F3014102EB4101B0FB27
:100A7000F1F010BD2DE9F04182B000286AD00446A3
:100A8000007843F60006C007C4F202060BD0B06837
:100A900000F00C00042840F0A1803068800302D5EB
:100AA0006068002856D0207880071AD5B06810F00A
:100AB0000C0F09D0B06800F00C00082840F0A880A6
:100AC0007068400200F1A4803068800702D5E068B9
:100AD00001283FD13068216920F0F80040EAC100C8
:100AE00030602078000739D4207840074ED4A569BB
:100AF0005DB3B06800F00C00082840F0BD80012D07
:100B000028D07068E16900F480028A4222D1216A0B
:100B100000F03F028A421DD147F6C071626A01406F
:100B2000B1EB821F16D1A26A0023CFF6FF7303EB4D
:100B3000C23200F440316FF30F0291420AD1E16AF0
:100B400000F07060B0EB016F04D1002002B0BDE88E
:100B5000F08100BF012002B0BDE8F081606900288B
:100B600040F20000C4F2472076D00121C0F8801E78
:100B7000FFF7B4FD054600BF706F8007B4D4FFF7E0
:100B8000ADFD401B0228F7D9DDE000BF306C10F04E
:100B900080580AD100200190306C40F080503064C1
:100BA000306C00F080500190019847F20007C4F2C9
:100BB00000073868C00541D4386840F48070386058
:100BC000FFF78CFD054600BF3868C00536D4FFF737
:100BD00085FD401B0228F7D9B5E000BFB06800F0E2
:100BE0000C00082803D1706840023FF556AF6068DA
:100BF000B0F5803F07D0B0F5A02F40F08D80306871
:100C000040F480203060306840F4803030608DE007
:100C1000E068002852D00020C4F247200121016082
:100C2000FFF75CFD054600BF306880073FF552AF17
:100C3000FFF754FD401B0228F6D984E0A068012884
:100C400005D005284ED1306F40F004003067306F7A
:100C500040F0010030674FE00021C0F8801EFFF730
:100C60003DFD0546706F80077FF53EAFFFF736FD0F
:100C7000401B0228F6D966E00027C4F2472700206F
:100C80003866FFF72BFD022D05460BD13068800139
:100C90005ED5FFF723FD401B02284FF00300F5D976
:100CA00054E700BF306880017FF54FAFFFF716FDB6
:100CB000401B02284FF00300F4D947E70020C4F29C
:100CC000472000210160FFF709FD054630688007D5
:100CD0007FF507AFFFF702FD401B02284FF003002E
:100CE000F4D933E7316F002821F001013167316F0A
:100CF00021F0040131674DD0FFF7F0FC054641F2C9
:100D0000883700BF306F800756D4FFF7E7FC401BE1
:100D1000B842F7D917E000BF3168002821F48031CC
:100D20003160316821F4802131604FD0FFF7D6FC6B
:100D3000054600BF306880033FF5B5AEFFF7CEFC37
:100D4000401B6428F6D9032002B0BDE8F08100BF43
:100D500004F11C052FCD08430021CFF6FF7140EAB6
:100D6000821001EBC3316FF30F0140EA05600843C5
:100D7000706001203866FFF7B1FC044630688001DE
:100D80003FF5E3AEFFF7AAFC001B02284FF003007B
:100D9000F4D9DBE6FFF7A2FC054641F2883700BF35
:100DA000306F800708D5FFF799FC401BB8424FF021
:100DB0000300F5D9CAE600BFB8F1000F7FF497AE83
:100DC000306C20F08050306491E600BFFFF786FC65
:100DD000054600BF306880037FF565AEFFF77EFCF7
:100DE000401B64284FF00300F4D9AFE670470000C1
:100DF000B0B582B0044600684168826812F04003D2
:100E000005D112F0010518BF11F0400512D1950768
:100E100008D511F0800505D0616C204602B0BDE810
:100E2000B040084712F4B07F18BF11F0200507D179
:100E300002B0B0BD216C204602B0BDE8B04008470A
:100E4000BBB194F85130032B08D100210191C16846
:100E5000019180680190019802B0B0BD636D43F0CC
:100E60000403636500230193C368019383680193BE
:100E7000019B12F0200302F4807203D18AB9626DE3
:100E8000DAB9D5E7636D43F001036365002301938D
:100E900083680193036823F040030360019B002AE9
:100EA000EDD0626D42F00802626500220192826814
:100EB0000192019A626D002ABAD04268890722F035
:100EC000E00242604FF0010284F8512020D04168D6
:100ED00041F6017521F003014160E06CC0F60005A8
:100EE00038B10565FFF7F0FA18B1606D40F04000C9
:100EF0006065A06C00289BD00565FFF7E5FA002827
:100F00003FF496AF606D40F04000606502B0B0BD48
:100F1000204602B0BDE8B040FFF768BF70B538B1F9
:100F20000446406A30B10020206104F1140007E05B
:100F3000012070BD6068B0F5827F03D004F11C0011
:100F4000002101600026A66294F8510020B92046D5
:100F500084F8506000F03CF8022084F8510094E8D6
:100F60000F0001F48271056802F4044225F0400587
:100F70000560114403F400622369114403F0020286
:100F80006369114403F00102A369E569114403F4A4
:100F90000072114405F03802256A114405F0800200
:100FA000A56A114305F4005211430160626A0421ED
:100FB00001EA134102F0100211444160C16921F4B9
:100FC0000061C1610120666584F85100304670BD42
:100FD0002DE9F04186B0006843F60042C4F20002F9
:100FE00000219042CDE90411CDE90211019145D0D3
:100FF00043F60001C4F20001884271D1002543F696
:1010000030000095C4F20200016940F6000441F48A
:10101000804101610169C4F2020401F48041009140
:101020000099009501684FF0020841F00401016049
:101030000168032701F004010091009900950168FF
:10104000052641F002010160006801A900F00200DC
:1010500000900098082001902046CDE90285049771
:101060000596FFF757FA4FF48060CDE90108CDE906
:1010700003570596A4F58060242426E043F630004B
:101080000091C4F202000269332442F4004202617A
:10109000026902F400420092009A0091026842F054
:1010A00004020260006800F00400009000984FF411
:1010B000A05001900220CDE90201032004900620F7
:1010C000059040F60000C4F2020001A9FFF722FAE1
:1010D000204600210022FFF783FB2046FFF770FB2C
:1010E00006B0BDE8F08100002DE9F04383B004466E
:1010F00090F85000012803D1022003B0BDE8F0832E
:101100004FF001091D4616460F4684F85090FFF730
:10111000E5FA94F85110012972D18046002F4FF062
:10112000010018BF002E00F0D6800320002184F8B3
:10113000510061652763A686E686A163A187E187E2
:10114000A0682164B0F5004F2068616407D1016890
:1011500021F040010160016841F4804101600168B3
:10116000490603D4016841F0400101606168731EC3
:10117000E268B1FA81F1B3FA83F349095B09B2F588
:10118000006F41EA03013DD131B137F8021BC16064
:101190002763E18E0139E186E18E00296CD0691C5C
:1011A0001BD000BF8168890706D4FFF797FAA0EB30
:1011B0000800A84208D3C1E0216B31F8022BC260BD
:1011C0002163E08E0138E086E08E002854D020684C
:1011D00081688907E9D5EFE720688168890703D42A
:1011E000FFF77CFA08E000BF216B31F8022BC260E8
:1011F0002163E08E0138E086E08E0028ECD13BE0F0
:10120000022068E039B139780173206B0130206326
:10121000E08E0138E086E08E70B3681C0BD11BE0D5
:10122000216B09780173206B01302063E08E013857
:10123000E086E08E00B3206881688907F0D4FFF76C
:101240004DFAA0EB0800A842F3D3032043E000BF0F
:10125000FFF744FAE08E78B1206881688907F7D5F6
:10126000216B09780173206B01302063E08E013817
:10127000E086E08E0028EFD140F20800C2F20000C4
:10128000006849F68171C1F25E61A0FB0101480D61
:101290004FF47A71484302906068B0F5827F23D1A1
:1012A000204680212A46434600F030FE28B1606D7A
:1012B00040F02000606520206065A06838B90020FB
:1012C00001902068C1680191806801900198606D6B
:1012D000002818BF0120002184F8519084F8501094
:1012E00003B0BDE8F08300BF02980028E5D0029863
:1012F00001380290206880680006DED50298002838
:10130000DBD0029801380290206880680006D4D5AE
:1013100002980028D1D00298013802902068806895
:101320000006CAD502980028C7D00298013802905A
:10133000206880680006D7D4BFE700BF0320CAE753
:10134000411E0020B0EB116F1CBF012070474EF210
:101350001002CEF2000251604EF62351CEF200018F
:10136000F0230B70072190601160704710B590F862
:101370003C20012A4FF002023ED080F83D20026856
:10138000D2F804E0D2F808C00C682EF070032343B2
:1013900040F6FF34C4F20004A242536010DCB2F104
:1013A000804F1ED040F20043C4F200039A4218D08E
:1013B00040F60003C4F200039A4212D016E000BFC8
:1013C00040F60043C4F200039A420AD044F20003FC
:1013D000C4F201039A4204D00023C4F201039A42EA
:1013E00004D149682CF08003194391600121002247
:1013F00080F83D1080F83C20104610BD002804BF46
:101400000120704710B5044690F83D0028B900202F
:1014100084F83C00204600F08FF8022084F83D005C
:10142000206840F2FF730268C4F2000340F2000C2F
:101430009842C4F2010C1DDD40F60001C4F2000127
:10144000884220D060451ED040F60041C4F2000121
:10145000884218D04FF6FF71C4F2000188421CDCAC
:10146000984225DCB0F1804F3AD040F20041C4F2FE
:10147000000133E0B0F1804F05D040F20041C4F2EA
:1014800000018842E6D1A16822F070020A434FF6BB
:10149000FF71C4F200018842E2DD44F2FF31C4F280
:1014A0000101884210DC60451AD044F2000113E0CB
:1014B00040F60001C4F20001884211D040F600411C
:1014C000C4F200010AE000BF44F60001C4F20101C9
:1014D000884205D044F20041C4F20101884203D1A0
:1014E000216922F440720A43A36922F08001D4F8F2
:1014F00004E0E268194360450160C262C0F828E078
:1015000002D16169CCF8301001214161002084F8DA
:10151000461084F83E1084F83F1084F8401084F898
:10152000411084F8421084F8431084F8441084F881
:10153000451084F83D1010BD81B0006840F20041B4
:10154000C4F20001884201D001B070470020009031
:1015500043F64000C4F20200016841F0020101605C
:10156000006800F002000090009801B07047000091
:1015700080B590F83C20012A4FF0020200F0C280B2
:1015800080F83D20D0F800C04FF67772DCF80830C4
:1015900023EA0202CCF808200B684F2B28DC1F2B13
:1015A00044DD202B45D0302B43D0402B40F0AC8085
:1015B000D1F804E0C968DCF82030DCF8202022F003
:1015C0000102CCF82020DCF8182022F0F00242EAD8
:1015D000011123F00A0242EA0E02CCF81810CCF8EE
:1015E0002020DCF8081041F0470121F0300180E0B4
:1015F0006F2B27DDB3F5005F48D0B3F5805F7AD05D
:10160000702B40F08180D1E901E3C968DCF8082043
:1016100043EA0E0322F47F4243EA01211143CCF84E
:101620000810DCF8081041F0770162E00BB1102BD4
:101630006AD1DCF8081021F07001194341F007016C
:1016400057E000BF502B35D0602B5DD1D1F804E0BE
:10165000C968DCF8203023F01003CCF82030DCF827
:101660001830DCF8202023F4704322F0A00243EA73
:10167000013142EA0E12CCF81810CCF82020DCF828
:10168000081041F0670121F0100132E0D1E901E3D7
:10169000C968DCF8082043EA0E0322F47F4243EADB
:1016A00001211143CCF80810DCF8081041F4804106
:1016B0001FE000BFD1F804E0C968DCF82030DCF896
:1016C000202022F00102CCF82020DCF8182022F0A3
:1016D000F00242EA011123F00A0242EA0E02CCF8BB
:1016E0001810CCF82020DCF8081041F0570121F048
:1016F0002001CCF808100022012180F83D100021C3
:1017000080F83C10104680BD0122F5E770470000CC
:1017100070470000B0B582B0044600680168C36835
:10172000426901F02F05202D03F0200506D12DB1CF
:10173000204602B0BDE8B04000F06EBC5FEA017C1C
:101740001EBF02F0010E03F4907212EB0E0255D18F
:10175000226B012A05D111F0100218BF13F01002FC
:1017600036D10A0622D513F080021FD094F83D101E
:10177000212941D1A168B1F5805F03D121690029F8
:1017800000F06C82216A4A1C226209784160E18C77
:1017900001390A04E1842FD1C16821F08001C160C0
:1017A000C16841F04001C16002B0B0BD490623D517
:1017B00013F0400120D0C16821F04001C160202118
:1017C000204684F83D1002B0BDE8B04000F082BB76
:1017D00000210191016801914168019101994169DC
:1017E000490600F18B80A18DE28DE38D002B1CBF9B
:1017F000891A5FEA01420CD102B0B0BDCA0718BF16
:1018000013F4807240F032814A0700F135813AE1E9
:10181000206850E8030F226820F4907042E8030328
:10182000DBB1206850E8030F226820F4907042E892
:10183000030393B1206850E8030F226820F49070EE
:1018400042E803034BB1206850E8030F226820F4FC
:10185000907042E80303002BDAD1206850E8050FAE
:10186000226820F0010042E80503DBB1206850E85F
:10187000050F226820F0010042E8050393B12068BB
:1018800050E8050F226820F0010042E805034BB143
:10189000206850E8050F226820F0010042E80503A7
:1018A000002BDAD1202084F83E000020206320683D
:1018B00050E8030F226820F0100042E80303DBB178
:1018C000206850E8030F226820F0100042E803036C
:1018D00093B1206850E8030F226820F0100042E81E
:1018E00003034BB1206850E8030F226820F010007A
:1018F00042E80303002BDAD189B2B0E0A26B116891
:101900004B689DB2002D3FF477AFA18D8D42BFF49F
:1019100073AFE385D269B2F5807F00F09D8050E817
:10192000030F216820F4807041E80302E2B12068CF
:1019300050E8030F216820F4807041E803029AB157
:10194000206850E8030F216820F4807041E803020A
:1019500052B1206850E8030F216820F4807041E8FC
:1019600003020AB12068DAE7206850E8050F216811
:1019700020F0010041E80502DAB1206850E8050FC7
:10198000216820F0010041E8050292B1206850E88A
:10199000050F216820F0010041E805024AB12068E6
:1019A00050E8050F216820F0010041E80502002AF7
:1019B000DAD1206850E8050F216820F0400041E8A6
:1019C0000502DAB1206850E8050F216820F04000D8
:1019D00041E8050292B1206850E8050F216820F027
:1019E000400041E805024AB1206850E8050F21682F
:1019F00020F0400041E80502002ADAD1202084F8D6
:101A00003E0000202063206850E8030F216820F08A
:101A1000100041E80302DAB1206850E8030F2168A2
:101A200020F0100041E8030292B1206850E8030F53
:101A3000216820F0100041E803024AB1206850E814
:101A4000030F216820F0100041E80302002ADAD1D8
:101A5000A06BFEF7EFFCA18DE08D081A81B2204645
:101A600002B0BDE8B040FFF751BE00BF226C42F0AB
:101A7000010222644A0706D5BEF1000F03D0226C92
:101A800042F0020222648A0706D5BEF1000F03D09D
:101A9000226C42F004022264BCF1000F06D555EA24
:101AA0000E0203D0226C42F008022264226C002A4B
:101AB0003FF4A2AE11F0200118BF002D03D0204644
:101AC00000F0AAFA20684169226C01F0400102F09E
:101AD0000802891800F0A28050E8030F216820F462
:101AE000907041E80302C2B3206850E8030F2168F8
:101AF00020F4907041E803027AB3206850E8030FA5
:101B0000216820F4907041E8030232B3206850E865
:101B1000030F216820F4907041E80302EAB12068C5
:101B2000DAE700BF206850E8050F216820F00100C7
:101B300041E80502DAB1206850E8050F216820F07D
:101B4000010041E8050292B1206850E8050F2168C4
:101B500020F0010041E805024AB1206850E8050F75
:101B6000216820F0010041E80502002ADAD1206B4B
:101B7000012824D1206850E8030F216820F01000CC
:101B800041E80302DAB1206850E8030F216820F031
:101B9000100041E8030292B1206850E8030F216869
:101BA00020F0100041E803024AB1206850E8030F1A
:101BB000216820F0100041E80302002ADAD1202039
:101BC00084F83E00002020632068416949063FD523
:101BD00050E8050F216820F0400041E805022AB3D3
:101BE000206850E8050F216820F0400041E8050218
:101BF000E2B1206850E8050F216820F0400041E87C
:101C000005029AB1206850E8050F216820F04000D5
:101C100041E8050252B12068DAE700BF2046FFF72D
:101C200077FD0020206402B0B0BD00BFA06B78B18A
:101C300042F20D01C0F600010165FEF745FC0028E7
:101C40003FF4DAADA06B016D02B0BDE8B0400847CB
:101C5000204602B0BDE8B040FFF75ABD216A31F816
:101C6000022B6FF35F224260216290E5002804BFDF
:101C70000120704710B5044690F83D0028B90020B7
:101C800084F83C00204600F021F8242084F83D0030
:101C90002068C16821F40051C160204600F03CFA80
:101CA0002068016921F490410161416921F02A0114
:101CB0004161C16841F40051C160002020212064CD
:101CC00084F83D1084F83E1010BD000080B586B049
:101CD000016841F20040C4F20100814202D006B026
:101CE00080BD00BF002143F630020191C4F2020220
:101CF000536900F5744043F020035361536903F0C6
:101D000020030193019B0191136843F004031360C6
:101D1000126802F004020192019AC022019202228A
:101D2000CDE90221032104910821059101A9FEF7C3
:101D3000F1FB472000210022FEF752FD4720FEF76D
:101D40003FFD06B080BD000090F83E30202B0BD147
:101D500000294FF0010318BF002A01D1184670472F
:101D600090F83C30012B01D102207047002303631F
:101D7000816222218285C285036480F83E10026957
:101D8000016880F83C301AB1C86840F48070C860BF
:101D90004869002340F001004861C86840F0200015
:101DA000C8601846704700002DE9F04182B040F24B
:101DB00070080025C2F20008C4F2020598F800403D
:101DC000284640210022FEF783FC40F2B80601209D
:101DD000C2F200060DF107078DF8070030463946BC
:101DE00001224FF6FF73FFF77FF930463946012293
:101DF0004FF6FF738DF80740FFF776F9284640212C
:101E00000122FEF765FC98F8014028464021002297
:101E1000FEF75EFC02208DF80700304639460122AD
:101E20004FF6FF73FFF760F93046394601224FF64F
:101E3000FF738DF80740FFF757F92846402101222C
:101E4000FEF746FC98F80240284640210022FEF7A3
:101E50003FFC03208DF807003046394601224FF63B
:101E6000FF73FFF741F93046394601224FF6FF7301
:101E70008DF80740FFF738F9284640210122FEF788
:101E800027FC98F80340284640210022FEF720FC5A
:101E900004208DF807003046394601224FF6FF73C3
:101EA000FFF722F93046394601224FF6FF738DF8CD
:101EB0000740FFF719F9284640210122FEF708FCE8
:101EC00008F1040041460422FFF73EFF02B0BDE8DE
:101ED000F081000070470000FEE70000FEE7000010
:101EE000FEE700007047000040F2B800C2F20000B8
:101EF000FEF77EBF40F21010C2F20000FEF778BF7E
:101F0000806B0021C187C186FEF770BF2DE9F041CB
:101F100082B01E4690460D460446FEF7DFFB301A9F
:101F200000EB0807FEF7DAFB40F20801C2F20001FD
:101F30000968C1F3CB317943019121688A682A404D
:101F4000AA4227D1064618F101001FD0FEF7C6FBB2
:101F5000801BB84222D2019801990028A1F1010109
:101F600001912168896808BF074601EA0500A84277
:101F7000ECD00FE088682840A8420BD18868284040
:101F8000A84207D188682840A84203D18868284021
:101F9000A842EFD0002002B0BDE8F081D4E90001F2
:101FA0004268B1F5827F22F0E00242600AD1A16866
:101FB000B1F5004F02D0B1F5806F03D1016821F077
:101FC00040010160A16AB1F5005F07D1016821F409
:101FD00000510160016841F400510160012084F862
:101FE0005100002084F85000032002B0BDE8F081C9
:101FF00070470000FEF778BB4EF68850CEF2000026
:10200000016841F47001016070470000806B00219D
:10201000C185C184FFF77CBB81B090F83E102229B6
:1020200020D18368B3F5805F08D10169002965D0AC
:1020300000F128010A6803685B680AE0014651F86C
:10204000282F13B90369002BF5D003685B6803F0F0
:102050007F0313700A6801320A60C18D01390A04D6
:10206000C18501D001B070470168CA6822F0200222
:10207000CA60CA6822F48072CA604A6922F001020A
:102080004A61202280F83E20026B012A40D10022C2
:10209000026300BF51E8031F026821F0100142E80B
:1020A00003130168DBB151E8031F026821F010013E
:1020B00042E80313016893B151E8031F026821F05D
:1020C000100142E8031301684BB151E8031F026895
:1020D00021F0100142E803130168002BDAD10A68ED
:1020E000D20606D5002200920A6800924968009143
:1020F0000099818D01B0FFF709BB00BF0168826ABA
:1021000049686FF35F2122F8021B8262A5E700BFD6
:1021100001B0FFF749BE000010B504460068D4E9DD
:1021200002C22369016921F44051114301616269CE
:1021300043EA0C01E3691143C268194349F20C6395
:102140009A431143C1604169A26921F4407141F28F
:102150000043114340F48062C4F201039A4241619A
:1021600002D1FEF73DFC01E0FEF726FCE169636861
:102170001922B1F5004FA0FB02011FD15A00DB0F5D
:10218000FEF778F848F21F51C5F2EB11A0FB0123CE
:102190005A096FF0630302FB0300322303EBC00014
:1021A000A0FB01014FF4F87000EA111000EB0210DF
:1021B000C1F3421108442168886010BD9A009B0F4A
:1021C000FEF758F848F21F51C5F2EB11A0FB0123AE
:1021D0005A096FF0630302FB0300322303EB001084
:1021E000A0FB0101F02000EA511000EB0210C1F346
:1021F000431108442168886010BD000040F274005B
:10220000C2F20000FFF786BAFEE7000094B043F682
:1022100030060024C4F20206C4F20204FEF772FA89
:1022200008AD281D2C21FEF79DF800270697CDE963
:102230000477CDE9027701973069022240F080509F
:102240003061306900F080500190019847F2000041
:102250000197CFF6FE70215862F38F31215020583C
:1022600000F440400190019801200B9010200C9048
:10227000284608920E97FEF7FDFB28B1EFF3108079
:1022800072B600BFFEE700BF0F20CDE902074FF492
:102290008050CDE9050702A800210497FEF7DCFA7B
:1022A00020B1EFF3108072B6FEE700BF0027CDE942
:1022B0000B770297306840F2004840F0040030602D
:1022C0003068602100F004000290029802973068A4
:1022D000002240F0800030603068C4F2000800F056
:1022E0008000029002980297306840F00100306050
:1022F000306800F00100029002980297306840F0C8
:1023000002003060306800F002000290029820461F
:10231000FEF7DEF94FF4005008904FF4041008ADBA
:10232000CDE9090704F500602946FEF7F3F80C2013
:10233000089007204FF002090C9020462946CDE96D
:1023400009970B97FEF7E6F8202008900126204613
:102350002946CDE909670B97FEF7DCF8402008A96C
:1023600081E84102204629460B97FEF7D3F840F258
:10237000101008F56051C2F200004FF482724FF461
:10238000007380E886000A21C0E90377C0E905737D
:10239000C761C0E90877C0E90A71FEF7BFFD28B13F
:1023A000EFF3108072B600BFFEE700BF40F2681086
:1023B000C2F2000043F67F6163220B97CDE90977F3
:1023C000CDE90277C0E90081C0E902720761876147
:1023D000FFF714F820B1EFF3108072B6FEE700BFEC
:1023E0004FF48050089040F26810C2F2000008A933
:1023F000FFF7BEF820B1EFF3108072B6FEE700BF22
:1024000040F26810C2F2000002A9FEF7AFFF28B147
:10241000EFF3108072B600BFFEE700BFA4F56C4179
:1024200040F27004C2F20004204640F8041F4FF44A
:10243000165100250C22C0E90115C0E90355C0E979
:102440000525C561FFF712FC20B1EFF3108072B6CD
:10245000FEE700BF40F2B80008F55051C2F200009C
:102460004FF482724FF4007380E826000A21C0E91D
:102470000355C0E90553C561C0E90855C0E90A51D3
:10248000FEF74CFD20B1EFF3108072B6FEE700BFFF
:102490006420FEF72BF800F007F8201D21460422E7
:1024A000FFF752FCFEE700002DE9F04381B0002465
:1024B000C4F202042046402100224FF00008FEF73B
:1024C00007F940F2B8050920C2F200050DF1030634
:1024D0008DF803002846314601224FF6FF734FF076
:1024E0000109FEF701FEFF208DF803002846314662
:1024F00001224FF6FF73FEF7F7FD2046402101222F
:10250000FEF7E6F8204640210022FEF7E1F80A2017
:102510008DF803002846314601224FF6FF73FEF77F
:10252000E3FD0F272846314601224FF6FF738DF851
:102530000370FEF7D9FD204640210122FEF7C8F8BE
:10254000204640210022FEF7C3F80B208DF803003F
:102550002846314601224FF6FF73FEF7C5FD0320E2
:102560008DF803002846314601224FF6FF73FEF72F
:10257000BBFD204640210122FEF7AAF8204640215B
:102580000022FEF7A5F80C208DF8030028463146FE
:1025900001224FF6FF73FEF7A7FD284631460122C0
:1025A0004FF6FF738DF80390FEF79EFD2046402105
:1025B0000122FEF78DF8204640210022FEF788F820
:1025C0002846314601224FF6FF738DF80370FEF75F
:1025D0008BFD2846314601224FF6FF738DF80380AC
:1025E000FEF782FD204640210122FEF771F801B07E
:1025F000BDE8F083F1EE100A4FF6FF71C0F2C03172
:1026000020EA010040F04070E1EE100A704700003F
:102610000000000000000102030406070809000092
:10262000000001020304000048260008000000200A
:1026300010000000D00100085826000810000020FB
:10264000A8070000EC0100080100000010000000D5
:082650000024F400000000006A
:040000050800019559
:00000001FF
