:020000040800F2
:100000006806002021020008290200082B020008CF
:100010002D0200082F020008310200080000000035
:100020000000000000000000000000003302000893
:1000300035020008000000003702000839020008FD
:100040003B0200083B0200083B0200083B0200089C
:100050003B0200083B020008090500083B020008BB
:100060003B0200083B0200083B0200083B0200087C
:100070003B0200083B0200083B0200083B0200086C
:100080003B0200083B0200083B02000800000000A1
:100090000000000000000000000000003B0200081B
:1000A0003B0200083B0200083B0200083B0200083C
:1000B0003B0200087D0600083B0200083B020008E6
:1000C0003B0200083B0200083B0200083B0200081C
:1000D0003B0200083B0200083B0200080000000051
:1000E0003B0200083B0200083B0200080000000041
:1000F0000000000000000000000000003B020008BB
:10010000000000003B0200083B0200083B02000820
:1001100000000000000000000000000000000000DF
:100120003B0200083B0200083B0200083B020008BB
:100130003B0200080000000000000000000000007A
:100140000000000000000000000000003B0200086A
:100150003B0200083B0200083B0200083B0200088B
:100160003B0200083B020008000000000000000005
:10017000000000000000000000000000000000007F
:10018000000000003B02000800000000000000002A
:100190003B02000800F002F800F032F80AA090E8F4
:1001A000000C82448344AAF10107DA4501D100F032
:1001B00027F8AFF2090EBAE80F0013F0010F18BFCD
:1001C000FB1A43F001031847C0070000D0070000E6
:1001D0000023002400250026103A28BF78C1FBD850
:1001E000520728BF30C148BF0B6070471FB500F0F1
:1001F000BDFB9DE8030000F081F81FBD10B510BDE8
:1002000000F000F91146FFF7F1FF00F031FB00F0BC
:100210001EF903B4FFF7F2FF03BC00F04FF9000032
:100220000948804709480047FEE7FEE7FEE7FEE78A
:10023000FEE7FEE7FEE7FEE7FEE7FEE704480549C6
:10024000054A064B70470000F905000895010008B3
:100250006800002068060020680200206802002074
:1002600070B5064600F02EF8056806F10B0020F088
:100270000704B4429CBF002070BD2B466A68BAB127
:100280001068A04210D304F1080188423CBF5068B6
:10029000586007D35168101941601168091B01604B
:1002A00058601460101D70BD13465268002AE7D1D3
:1002B0002146284600F00EF80028DED170BD7047B8
:1002C000704770470048704708000020704770472B
:1002D0007047704738B504460A4600206946AFF3B8
:1002E0000080002808BF38BD02460099204600F073
:1002F00067F8012038BD012000F07CB8F8B5AFF3F5
:100300000080054600200C46102000BF0646A819B4
:10031000A0420DD9324669460020AFF300800700A5
:1003200008BF00F067F80098A04218BF0546C4193E
:10033000FFF7C8FF05600746F01D20F007004619CB
:10034000284600F00AF8B44208BFF8BDA21B3146A7
:100350003868BDE8F84000F033B800210160C0E91A
:10036000011070471020704770B50446051FFFF755
:10037000A9FF0068002C14BF446870BD002C18BF92
:10038000AC423CBF20466468F8D301680A18AA4210
:1003900018BF456003D12A680546114401602868EA
:1003A0004119A1421CBF6C6070BD61686960216821
:1003B0000844286070BD000000487047000000201D
:1003C000034640688C46002818BF88423CBF03465D
:1003D0004068F8D318681844884207D00CF103002D
:1003E00020F00700001D411A521A0146081D0A603C
:1003F000FFF7BABF10B500F039F8BDE8104000F0C3
:100400002FB870477546FFF7D7FFAE46050069461F
:10041000534620F00700854618B020B5FFF70EFFC1
:10042000BDE820404FF000064FF000074FF00008F5
:100430004FF0000BAC46ACE8C009ACE8C009ACE832
:10044000C009ACE8C00921F007018D46704710B51E
:100450000446AFF300802046BDE81040FFF7D9BE48
:10046000002801D000F02AB87047000010B501281C
:1004700005D0002103A000F027F8012010BD09A13C
:10048000F8E7000053494752544D454D3A204F7507
:1004900074206F662068656170206D656D6F72797C
:1004A000000000003A2048656170206D656D6F7234
:1004B0007920636F72727570746564000149182049
:1004C000ABBEFEE72600020070B505460C460A20CA
:1004D00000E06D1C00F011F835B128780028F8D143
:1004E00002E0641C00F009F814B120780028F8D16B
:1004F000BDE870400A20AFF3008008B569468DF86A
:1005000000000320ABBE08BD40F26001C2F2000152
:10051000086801300860704780B584B08DF80F001E
:1005200040F21441C4F202010291086820F0400038
:100530000860086820F02000086040F61801C4F246
:1005400002014FF47F0008609DF80F0040F614018F
:10055000C4F2020108600020019000F06DF90198DA
:10056000029A116841F08001116000F065F902996A
:10057000086820F0800008609DF80F00032804DC64
:10058000FFE7022000F058F903E0012000F054F9E1
:10059000FFE704B080BD000080B582B08DF8070091
:1005A00040F21441C4F202010091086840F02000BA
:1005B0000860086820F04000086040F61802C4F2A5
:1005C00002024FF47F0010609DF8070040F614020D
:1005D000C4F202021060086840F080000860002049
:1005E00000F02AF90099086820F0800008600120D6
:1005F00000F022F902B080BD4EF68851CEF2000123
:10060000086840F4700008607047000080B572B65A
:1006100043F64001C4F20201086840F0020008609D
:1006200040F22841C4F2000140F23F60086040F20D
:100630002C41C4F2000142F20F70086040F2004108
:10064000C4F20001086840F00100086040F2244252
:10065000C4F200020020106040F20C42C4F200021A
:10066000106840F001001060086840F00100086068
:100670001D2000F03DF862B680BD000080B584B05A
:1006800040F26000C2F20000006803900020029077
:100690000120FFF741FFFFE7039868B1FFE70398E8
:1006A0004CF6CD41CCF6CC41A0FB0110C008039024
:1006B000029801300290EFE740F26000C2F20000C1
:1006C000006800F02DF8019000200090FFE70098EE
:1006D000029988420ADAFFE701980099405CFFF727
:1006E0005BFFFFE7009801300090F0E704B080BDA9
:1006F00081B08DF803009DF9030000280ED4FFE7B8
:100700009DF9031001F01F02012090404A094EF2AA
:100710000011CEF2000141F82200FFE701B070475E
:10072000D0B502AF8AB047F80C0C57F80C0C47F85C
:10073000100C002047F8140CFFE757F8100C98B184
:10074000FFE757F8140C013047F8140C57F8100C59
:1007500046F26761C6F2666150FB01F1881000EB5A
:10076000D17047F8100CE8E757F8140C694647F8C1
:100770001C1CC11D21F007026946891A8D4647F8E5
:100780002C1C47F8200C57F8140CFFF769FD47F8AC
:10079000180C002047F8240CFFE757F80C0CF8B1B0
:1007A000FFE757F82C2C57F80C0C4CF6CD41CCF643
:1007B000CC41A0FB01C3DB0803EB8303A0EB4300A8
:1007C00040F0300057F8243C013347F8243CD05423
:1007D00057F80C0CA0FB0110C00847F80C0CDCE724
:1007E000002047F8280CFFE757F8280C57F8241C7E
:1007F000884212DAFFE757F82C0C57F8241C57F8F8
:10080000282C891A405C57F8181C8854FFE757F8C1
:10081000280C013047F8280CE6E757F8181C57F861
:10082000282C0020885457F8180C57F81C1C8D46AB
:10083000A7F10804A546D0BD83B00290FFE7029857
:10084000012813DBFFE700200090FFE7009840F647
:100850007A41884205DCFFE7FFE70098013000900D
:10086000F4E7FFE7029801380290E8E703B0704729
:1008700080B584B00020039043F63001C4F2020139
:10088000086840F00200086040F20C42C4F2020224
:10089000106840F00200106040F20042C4F2020210
:1008A000106840F4AA401060086840F00400086036
:1008B00040F60001C4F2020145F25550C0F2550065
:1008C00008601420FFF7B8FF30200090FFF724FEE7
:1008D0000520FFF7B1FF0098FFF71EFE01200290F0
:1008E000FFF7AAFF0098FFF717FE0298FFF7A4FF93
:1008F0000098FFF711FE0298FFF79EFF3820FFF7E0
:100900000BFE06200190FFF707FE0298FFF704FE9A
:100910000F20FFF701FE019843F64402C4F20202E1
:10092000116841F48041116043F60802C4F20102EB
:10093000116841F00101116043F60042C4F2010266
:10094000116841F00101116043F60842C4F201024E
:10095000116841F001011160FFF7CAFE62B6FFF7AE
:1009600055FE0298FFF7D8FDFFE7FEE7F1EE100A0B
:100970004FF6FF71C0F2C03120EA010040F0407034
:10098000E1EE100A704700009809000800000020FE
:0809900068060000D001000818
:040000050800019559
:00000001FF
