:020000040800F2
:10000000600700203D020008BD1F00087D1E00089B
:10001000B91F000865060008F91F0008000000006D
:10002000000000000000000000000000C51F0008E4
:100030006906000800000000C11F0008C91F000871
:10004000570200085702000857020008570200082C
:10005000570200085702000857020008570200081C
:10006000570200085702000857020008570200080C
:1000700057020008570200085702000857020008FC
:10008000570200085702000857020008000000004D
:1000900000000000000000000000000057020008FF
:1000A00057020008570200085702000857020008CC
:1000B000E11F0008ED1F0008570200085702000862
:1000C00057020008570200085702000857020008AC
:1000D00057020008570200085702000800000000FD
:1000E00057020008570200085702000800000000ED
:1000F000000000000000000000000000570200089F
:1001000000000000570200085702000857020008CC
:1001100000000000000000000000000000000000DF
:10012000570200085702000857020008570200084B
:10013000570200080000000000000000000000005E
:10014000000000000000000000000000570200084E
:10015000570200085702000857020008570200081B
:1001600057020008570200080000000000000000CD
:10017000000000000000000000000000000000007F
:10018000000000005702000800000000000000000E
:100190005702000800F002F800F040F80AA090E8CA
:1001A000000C82448344AAF10107DA4501D100F032
:1001B00035F8AFF2090EBAE80F0013F0010F18BFBF
:1001C000FB1A43F001031847D4250000F425000072
:1001D000103A24BF78C878C1FAD8520724BF30C873
:1001E00030C144BF04680C60704700000023002445
:1001F00000250026103A28BF78C1FBD8520728BF37
:1002000030C148BF0B6070471FB502F0A2FA9DE8ED
:10021000030000F021F91FBD10B510BD00F0A0F9DA
:100220001146FFF7F1FF01F0F1FF00F0BEF903B452
:10023000FFF7F2FF03BC00F0EFF900000948804728
:1002400009480047FEE7FEE7FEE7FEE7FEE7FEE7B8
:10025000FEE7FEE7FEE7FEE704480549054A064BD0
:1002600070470000CD1F00089501000860010020C4
:1002700060070020600300206003002070B5064680
:1002800000F0CEF8056806F10B0020F00704B44238
:100290009CBF002070BD2B466A68BAB11068A042AE
:1002A00010D304F1080188423CBF5068586007D35E
:1002B0005168101941601168091B01605860146091
:1002C000101D70BD13465268002AE7D1214628460A
:1002D00000F0AEF80028DED170BD53EA020C00F049
:1002E00069802DE9F04B4FF00006002B1FBFB3FAD9
:1002F00083F503FA05F424FA05F65E4012BF1643AF
:10030000B2FA82F502FA05F4C5F120051EBF22FA01
:1003100005FC44EA0C04203556EA044C4FEA144428
:1003200018BF641C4FF000084FF00009904271EBB9
:10033000030C39D3002919BFB1FA81F701FA07F686
:10034000B0FA80F700FA07F6C7F120071EBF20FABF
:1003500007FC46EA0C062037B6FBF4FCA7EB0507C2
:10036000103F07F01F0BCBF120062CFA06F60CFA13
:100370000BFB44BFB3460026202FA4BF5E464FF0C0
:10038000000B5BEA060C08BF4FF0010B19EB0B09E1
:1003900048EB0608ABFB027C06FB02CC0BFB03CC54
:1003A000C01B71EB0C01C1E70B46024641464846B3
:1003B000BDE8F08B13B5084318BF4FF0FF3001467E
:1003C000AFF30080BDE81C4070474FF0000200B55D
:1003D000134694469646203922BFA0E80C50A0E868
:1003E0000C50B1F12001BFF4F7AF090728BFA0E816
:1003F0000C5048BF0CC05DF804EB890028BF40F8E2
:10040000042B08BF704748BF20F8022B11F0804F23
:1004100018BF00F8012B7047704770477047000005
:1004200000487047180000207047704770477047B9
:1004300038B504460A4600206946AFF3008000281C
:1004400008BF38BD02460099204600F067F8012039
:1004500038BD012000F07CB8F8B5AFF30080054648
:1004600000200C46102000BF0646A819A0420DD956
:10047000324669460020AFF30080070008BF00F055
:1004800067F80098A04218BF0546C419FFF7C8FFD7
:1004900005600746F01D20F007004619284600F0C9
:1004A0000AF8B44208BFF8BDA21B31463868BDE85F
:1004B000F84000F033B800210160C0E90110704736
:1004C0001020704770B50446051FFFF7A9FF0068AC
:1004D000002C14BF446870BD002C18BFAC423CBF58
:1004E00020466468F8D301680A18AA4218BF45601C
:1004F00003D12A6805461144016028684119A142C8
:100500001CBF6C6070BD6168696021680844286028
:1005100070BD00000048704710000020034640688E
:100520008C46002818BF88423CBF03464068F8D379
:1005300018681844884207D00CF1030020F0070027
:10054000001D411A521A0146081D0A60FFF7BABF82
:1005500010B500F039F8BDE8104000F02FB8704732
:100560007546FFF7D7FFAE4605006946534620F0B3
:100570000700854618B020B5FFF76EFEBDE82040A5
:100580004FF000064FF000074FF000084FF0000B4F
:10059000AC46ACE8C009ACE8C009ACE8C009ACE8BE
:1005A000C00921F007018D46704710B50446AFF32E
:1005B00000802046BDE81040FFF739BE002801D07A
:1005C00000F02AB87047000010B5012805D00021BE
:1005D00003A000F027F8012010BD09A1F8E70000F2
:1005E00053494752544D454D3A204F7574206F661C
:1005F0002068656170206D656D6F72790000000084
:100600003A2048656170206D656D6F727920636F67
:10061000727275707465640001491820ABBEFEE704
:100620002600020070B505460C460A2000E06D1C4D
:1006300000F011F835B128780028F8D102E0641CE8
:1006400000F009F814B120780028F8D1BDE8704016
:100650000A20AFF3008008B569468DF8000003203A
:10066000ABBE08BDFEE70000704700002DE9F04F6B
:1006700082B000F13E4241F2000502F1FF77C4F280
:10068000020507224FEAB726A84208BF0422042E1B
:1006900038BF4FEAB7224FF0010A002400274FF07D
:1006A0000008009208E000BF023708F10108202F7F
:1006B00004F1040400F0B4800E680AFA08F916EA9E
:1006C000090FF1D0D1F804A00AF0030BABF1010639
:1006D000012E17D80322866802FA07FECA6826EAA6
:1006E0000E06BA40324382604268CAF3001522EA1D
:1006F000090205FA08F54FEA480C6FEA0E062A438C
:1007000042600BE00322BA40D643BBF1030FBC4664
:1007100004D1BC464FF0030B22E000BFC2688D68D5
:10072000324005FA0CF52A43BBF1020FC26017D123
:100730006FF0030202EA5802024404F01C030F2582
:10074000D2F820E005FA03FA0D692EEA0A0E05FA3E
:1007500003F343EA0E031362D1F804A00AF0030B7B
:1007600002680BFA0CF332401A431AF4403F4FF080
:10077000010A026098D0002243F644030192C4F2B9
:1007800002031A6843F6004E42F480421A601A6867
:10079000C4F2010E02F480420192019A28F0030291
:1007A0004FF6084C7244CFF6FF7C52F80C3004F040
:1007B0000C060F25B540AB43009D05FA06F6334302
:1007C00042F80C30DEF808204B6842EA090643F68E
:1007D0000C4CDD0258BF22EA0906CEF80860C4F2CC
:1007E000010CDCF800209D0242EA090658BF22EA0B
:1007F0000906CCF80060DEF804209D0342EA0906F1
:1008000058BF22EA0906CEF80460DEF80020DB03B8
:1008100042EA090658BF22EA0906CEF8006043E71B
:1008200002B0BDE8F08F0000002A08BF0904816112
:100830007047000040F25C10C2F200000068704790
:1008400040F2000040F25C11C2F20000C2F200016E
:1008500000780A68104408607047000080B543F6CD
:100860000040C4F20200016841F4007101600168B7
:1008700041F480610160016841F4807101600320EE
:1008800000F084F80F2000F005F800F027F80020B1
:1008900080BD000070B540F20006C2F2000640F2D2
:1008A00008013278C2F200014FF47A730968B3FB91
:1008B000F2F20446B1FBF2F1084600F019FB0F2CEE
:1008C0004FF0010508D838B94FF0FF30214600221B
:1008D000002500F02FF87460284670BD82B000201B
:1008E00043F640010190C4F202014A6842F480429A
:1008F0004A604A6802F480420192019A00900868B6
:1009000040F080500860086800F080500090009827
:1009100002B07047002848BF704700F01F01012255
:1009200002FA01F14EF200124009CEF2000242F842
:100930002010704710B54EF60C5CCEF2000CDCF8BF
:100940000030C3F3022E8EF00704042C28BF0424C9
:10095000BEF103034FF0FF3E0EFA04F438BF00234C
:10096000A14399400EFA03F39A43114300F00F029A
:10097000043A624409010C3200F16043B0F1FF3FD8
:10098000C8BF03F56442117010BD00004EF60C5153
:10099000CEF200010A684FF6FF031A4060F30A2204
:1009A00042F0806040F0FD70086070472DE9F04132
:1009B000002800F08B8043F60808C4F202080446C1
:1009C000D8F8F8030D4600F00700884207D288F8EF
:1009D000F853D8F8F80300F00700A84276D1206851
:1009E000810717D5410705D5D8F8001041F4E0512B
:1009F000C8F80010010705D5D8F8001041F460418F
:100A0000C8F80010D8F80010A26821F0F0011143D6
:100A1000C8F80010C0073FD1D8F8F80300F007006D
:100A2000A84207D988F8F853D8F8F80300F007006F
:100A3000A8424BD12068410707D5D8F80010E268DA
:100A400021F4E0511143C8F80010000708D5D8F888
:100A50000000216920F4604040EAC100C8F80000AD
:100A600000F054F8D8F8001042F26C72C1F3031190
:100A7000C0F60002515C40F2080220FA01F140F297
:100A80000400C2F200000068C2F200021160FFF729
:100A900001FF0020BDE8F0816068811E022907D2B5
:100AA00058F8081C89015CBF0120BDE8F08111E005
:100AB000012807D158F8081C89035CBF0120BDE854
:100AC000F08107E058F8081C890703D40120BDE82D
:100AD000F08100BFD8F8001021F003010843C8F8E6
:100AE0000000FFF7A7FE064641F28837D8F800005D
:100AF000616800F00C00B0EB810F8DD0FFF79AFE1B
:100B0000801BB842F2D90320BDE8F08110B543F64E
:100B10000404C4F20204606800F00C0008280BD042
:100B2000042819BF42F20040C0F2F40047F640002A
:100B3000C0F27D1010BD00BF206821682368490203
:100B400047F64001C0F27D1100F03F02C3F3881068
:100B50005CBF42F20041C0F2F401A1FB000100239E
:100B6000FFF7BBFB21680222C1F3014102EB410107
:100B7000B0FBF1F010BD00002DE9F04182B000287B
:100B80006AD00446007843F60006C007C4F20206A5
:100B90000BD0B06800F00C00042840F0A180306851
:100BA000800302D56068002856D0207880071AD5C7
:100BB000B06810F00C0F09D0B06800F00C000828E5
:100BC00040F0A8807068400200F1A480306880077F
:100BD00002D5E06801283FD13068216920F0F80093
:100BE00040EAC10030602078000739D420784007FF
:100BF0004ED4A5695DB3B06800F00C00082840F041
:100C0000BD80012D28D07068E16900F480028A421D
:100C100022D1216A00F03F028A421DD147F6C071FD
:100C2000626A0140B1EB821F16D1A26A0023CFF69F
:100C3000FF7303EBC23200F440316FF30F029142B5
:100C40000AD1E16A00F07060B0EB016F04D10020BE
:100C500002B0BDE8F08100BF012002B0BDE8F08124
:100C60006069002840F20000C4F2472076D00121DC
:100C7000C0F8801EFFF7DEFD054600BF706F8007DD
:100C8000B4D4FFF7D7FD401B0228F7D9DDE000BF41
:100C9000306C10F080580AD100200190306C40F088
:100CA00080503064306C00F080500190019847F221
:100CB0000007C4F200073868C00541D4386840F422
:100CC00080703860FFF7B6FD054600BF3868C00584
:100CD00036D4FFF7AFFD401B0228F7D9B5E000BFBF
:100CE000B06800F00C00082803D1706840023FF59E
:100CF00056AF6068B0F5803F07D0B0F5A02F40F048
:100D00008D80306840F480203060306840F480305E
:100D100030608DE0E068002852D00020C4F2472007
:100D200001210160FFF786FD054600BF306880079E
:100D30003FF552AFFFF77EFD401B0228F6D984E055
:100D4000A068012805D005284ED1306F40F004007E
:100D50003067306F40F0010030674FE00021C0F88D
:100D6000801EFFF767FD0546706F80077FF53EAF79
:100D7000FFF760FD401B0228F6D966E00027C4F2A9
:100D8000472700203866FFF755FD022D05460BD199
:100D9000306880015ED5FFF74DFD401B02284FF003
:100DA0000300F5D954E700BF306880017FF54FAFED
:100DB000FFF740FD401B02284FF00300F4D947E73E
:100DC0000020C4F2472000210160FFF733FD0546F3
:100DD000306880077FF507AFFFF72CFD401B022826
:100DE0004FF00300F4D933E7316F002821F00101FF
:100DF0003167316F21F0040131674DD0FFF71AFDE3
:100E0000054641F2883700BF306F800756D4FFF7A0
:100E100011FD401BB842F7D917E000BF3168002828
:100E200021F480313160316821F4802131604FD06C
:100E3000FFF700FD054600BF306880033FF5B5AE03
:100E4000FFF7F8FC401B6428F6D9032002B0BDE888
:100E5000F08100BF04F11C052FCD08430021CFF61F
:100E6000FF7140EA821001EBC3316FF30F0140EADA
:100E700005600843706001203866FFF7DBFC04461C
:100E8000306880013FF5E3AEFFF7D4FC001B022879
:100E90004FF00300F4D9DBE6FFF7CCFC054641F246
:100EA000883700BF306F800708D5FFF7C3FC401BB1
:100EB000B8424FF00300F5D9CAE600BFB8F1000F01
:100EC0007FF497AE306C20F08050306491E600BF24
:100ED000FFF7B0FC054600BF306880037FF565AEC4
:100EE000FFF7A8FC401B64284FF00300F4D9AFE6DD
:100EF000411E0020B0EB116F1CBF012070474EF265
:100F00001002CEF2000251604EF62351CEF20001E3
:100F1000F0230B700721906011607047704700004C
:100F20007047000010B590F83C20012A4FF00202F3
:100F30003ED080F83D200268D2F804E0D2F808C024
:100F40000C682EF07003234340F6FF34C4F2000413
:100F5000A242536010DCB2F1804F1ED040F2004339
:100F6000C4F200039A4218D040F60003C4F2000312
:100F70009A4212D016E000BF40F60043C4F20003CC
:100F80009A420AD044F20003C4F201039A4204D008
:100F90000023C4F201039A4204D149682CF0800373
:100FA000194391600121002280F83D1080F83C2017
:100FB000104610BD002804BF0120704710B504463C
:100FC00090F83D0028B9002084F83C00204600F04D
:100FD0008FF8022084F83D00206840F2FF73026819
:100FE000C4F2000340F2000C9842C4F2010C1DDD73
:100FF00040F60001C4F20001884220D060451ED0B6
:1010000040F60041C4F20001884218D04FF6FF714B
:10101000C4F2000188421CDC984225DCB0F1804F0C
:101020003AD040F20041C4F2000133E0B0F1804F09
:1010300005D040F20041C4F200018842E6D1A16827
:1010400022F070020A434FF6FF71C4F20001884299
:10105000E2DD44F2FF31C4F20101884210DC604558
:101060001AD044F2000113E040F60001C4F200017E
:10107000884211D040F60041C4F200010AE000BFEE
:1010800044F60001C4F20101884205D044F2004157
:10109000C4F20101884203D1216922F440720A435B
:1010A000A36922F08001D4F804E0E26819436045A6
:1010B0000160C262C0F828E002D16169CCF830104A
:1010C00001214161002084F8461084F83E1084F824
:1010D0003F1084F8401084F8411084F8421084F8DE
:1010E000431084F8441084F8451084F83D1010BD76
:1010F00080B586B0006840F60041C4F20001884225
:101100003CD040F20041C4F20001884248D0B0F126
:10111000804F42D1002043F640010190C4F2020109
:101120000A6842F001020A600A6802F001020192B4
:10113000019A019051F8102C42F0010241F8102C54
:1011400051F8101C022201F00101019101990121C5
:10115000CDE90220CDE9040100200191C4F2020092
:1011600001A9FFF783FA1C2000210022FFF7E2FB10
:101170001C20FFF7CFFB06B080BD00BF0020019010
:1011800043F64000C4F20200016841F0080101602A
:10119000006800F008000190019806B080BD00BF13
:1011A0000020019043F64000C4F2020001680022D2
:1011B00041F0020101600068002100F0020001908E
:1011C00001981D20FFF7B6FB1D2006B0BDE880404A
:1011D000FFF7A0BB90F83D1001291CBF012070470C
:1011E000022180F83D10006840F6FF31C4F2000192
:1011F00088420FDCB0F1804F1DD040F20041C4F2B4
:101200000001884217D040F60001C4F20001884274
:1012100011D017E040F60041C4F2000188420AD024
:1012200044F20001C4F20101884204D00021C4F25A
:101230000101884206D1816801F00701062904BF37
:1012400000207047016841F00101016000207047F3
:1012500090F83D1001291CBF01207047022180F841
:101260003D10006840F6FF32C168C4F200029042AF
:1012700041F00101C1600FDCB0F1804F1DD040F2A0
:101280000041C4F20001884217D040F60001C4F2C8
:101290000001884211D017E040F60041C4F200017D
:1012A00088420AD044F20001C4F20101884204D00D
:1012B0000021C4F20101884206D1816801F00701D2
:1012C000062904BF00207047016841F00101016058
:1012D000002070470146006841F21113026A1A4269
:1012E00004D00122002081F83D207047026A40F2BC
:1012F00044431A42F5D1026822F001020260012241
:10130000002081F83D2070470146006841F211132A
:10131000C26822F00102C260026A1A4204D00122AD
:10132000002081F83D207047026A40F244431A428F
:10133000F5D1026822F0010202600122002081F84A
:101340003D20704780B590F83C20012A4FF0020202
:1013500000F0C28080F83D20D0F800C04FF67772D0
:10136000DCF8083023EA0202CCF808200B684F2B87
:1013700028DC1F2B44DD202B45D0302B43D0402BC5
:1013800040F0AC80D1F804E0C968DCF82030DCF82B
:10139000202022F00102CCF82020DCF8182022F0D6
:1013A000F00242EA011123F00A0242EA0E02CCF8EE
:1013B0001810CCF82020DCF8081041F0470121F08B
:1013C000300180E06F2B27DDB3F5005F48D0B3F527
:1013D000805F7AD0702B40F08180D1E901E3C96849
:1013E000DCF8082043EA0E0322F47F4243EA01219D
:1013F0001143CCF80810DCF8081041F0770162E0E6
:101400000BB1102B6AD1DCF8081021F070011943E0
:1014100041F0070157E000BF502B35D0602B5DD164
:10142000D1F804E0C968DCF8203023F01003CCF8D0
:101430002030DCF81830DCF8202023F4704322F050
:10144000A00243EA013142EA0E12CCF81810CCF89F
:101450002020DCF8081041F0670121F0100132E093
:10146000D1E901E3C968DCF8082043EA0E0322F45D
:101470007F4243EA01211143CCF80810DCF8081040
:1014800041F480411FE000BFD1F804E0C968DCF8F6
:101490002030DCF8202022F00102CCF82020DCF8FB
:1014A000182022F0F00242EA011123F00A0242EA77
:1014B0000E02CCF81810CCF82020DCF8081041F00F
:1014C000570121F02001CCF808100022012180F8FA
:1014D0003D10002180F83C10104680BD0122F5E748
:1014E0002DE9F0470068B0F1804F18BFBDE8F087E4
:1014F00040F27004C2F200042069002800F0C280AB
:101500002178002900F0C4802178012940F0BB80B7
:1015100040F2CC00C2F2000000684FF0000C416BBA
:10152000A160A1686268C0F824C0891AB1F5FA7F89
:10153000C0F0BC8040F2000E40F61801CFF6FF7EEE
:101540004FF600034FF60042C4F20201AEF58010E0
:10155000CFF6FF73CFF6FF724FF0007780254FF480
:1015600000064FF02008C1F800E0C85041F802E042
:10157000CF500D600E60C1F800E0C85041F802E0A5
:1015800041F80280CF504FF010094FF400774FF42C
:10159000807A0D600E60C1F800E0C85041F802E0AA
:1015A00041F8028041F80290CF500D600E60C1F802
:1015B00000E0C85041F802E0CF500D600E60C1F865
:1015C00000E0C85041F802E041F8028041F8029082
:1015D000CF500D600E60C1F800E0C85041F802E045
:1015E00041F8029041F803A0CF500D600E60C1F8A1
:1015F00000E0C85041F802E041F8028041F8029052
:10160000CF500D600E60C1F800E0C85041F802E014
:10161000CF500D600E60C1F800E0C85041F802E004
:1016200041F8028041F80290CF500D600E60C1F881
:1016300000E0C85041F802E041F8029041F803A0F0
:10164000CF500D600E60C1F800E0C85041F802E0D4
:1016500041F8028041F80290CF500D600E60C1F851
:1016600000E0C85041F802E0CF500D600E606069A4
:10167000C0F824C040F21410C2F200000068C0F8A4
:1016800024C02FE0002001302061BDE8F08700BFBA
:1016900040F2CC01C2F20001096800224A62012135
:1016A0006260217001302061BDE8F087E0680128A8
:1016B0000CD10020E06004F11400FFF70BFE40F2B3
:1016C0001410C2F20000FFF71FFE0BE00120E060E3
:1016D00004F11400FFF77EFD40F21410C2F2000086
:1016E000FFF7B6FD00202070606060602069013067
:1016F0002061BDE8F0870000F0B590F83C30012B88
:1017000004BF0220F0BD4FEAB202032A2CD8DFE862
:1017100002F003314F6F00BF0368D1E900C5D1F873
:101720000CE01A6A40F6FF3722F001021A621A46EC
:1017300052F8186F1C6AC4F20007BB4200F37E80A7
:10174000B3F1804F00F08B8040F20047C4F20007F5
:10175000BB4200F0848040F60007C4F20007BB42A1
:1017600000F07D8096E000BF0121002280F83C203F
:101770000846F0BD0368D1E900E6D1E902C11A6A62
:10178000360222F010021A621A4652F8184F4FF22F
:10179000FF071D6ABE4324F4734461F30F3646EA23
:1017A000040125F0A0040EF00A0744EA07173CE004
:1017B0000768D1E900C5D1E902313A6A61F307153A
:1017C00022F480723A623A4652F81C4F3E6A24F084
:1017D000F30445EA040126F420660CF00A0546EA03
:1017E000052611603E62116821F00C01116047E08E
:1017F0000368D1E900E6D1E902C11A6A360222F48F
:1018000080521A621A4652F81C4F4FF2FF071D6AA7
:10181000BE4324F4734461F30F3646EA040125F411
:1018200020440EF00A0744EA073711601F6211686E
:101830004FEA0C2321F44061116021E040F600479B
:10184000C4F20007BB420AD044F20007C4F2010709
:10185000BB4204D00027C4F20107BB421AD126F0D4
:101860000306354324F00A070CF00A066EF3071549
:1018700037449D611F629F6927F00C079F618B6849
:101880001168194311600021002280F83C200846AD
:10189000F0BD00BF46F00105E4E70000002804BFEA
:1018A0000120704710B5044690F83D0028B900208B
:1018B00084F83C00204600F08FF8022084F83D00B8
:1018C000206840F2FF730268C4F2000340F2000C8B
:1018D0009842C4F2010C1DDD40F60001C4F2000183
:1018E000884220D060451ED040F60041C4F200017D
:1018F000884218D04FF6FF71C4F2000188421CDC08
:10190000984225DCB0F1804F3AD040F20041C4F259
:10191000000133E0B0F1804F05D040F20041C4F245
:1019200000018842E6D1A16822F070020A434FF616
:10193000FF71C4F200018842E2DD44F2FF31C4F2DB
:101940000101884210DC60451AD044F2000113E026
:1019500040F60001C4F20001884211D040F6004177
:10196000C4F200010AE000BF44F60001C4F2010124
:10197000884205D044F20041C4F20101884203D1FB
:10198000216922F440720A43A36922F08001D4F84D
:1019900004E0E268194360450160C262C0F828E0D3
:1019A00002D16169CCF8301001214161002084F836
:1019B000461084F83E1084F83F1084F8401084F8F4
:1019C000411084F8421084F8431084F8441084F8DD
:1019D000451084F83D1010BD7047000051B3082930
:1019E0000AD0042919BF00F1410200F1450300F1BA
:1019F0003F0200F1430303E000F1400200F1440321
:101A000012781B78012A4FF0010208BF012B01D088
:101A1000104670470222082922D004292CD180F8D0
:101A20003F2080F843204FEAB103032B4FF001021F
:101A3000EED82BE090F83E2090F84230012A4FF08B
:101A4000010208BF012BE3D1022280F83E2080F87A
:101A500042204FEAB103032B4FF00102D8D815E022
:101A600080F8402080F844204FEAB103032B4FF068
:101A70000102CDD80AE000BF80F8412080F845205F
:101A80004FEAB103032B4FF00102C1D842F27C7C34
:101A90000068C0F6000C5CF823C0C36801F01F01A9
:101AA00043EA0C03C360036A02FA01F123EA01026C
:101AB0000262026A114340F6FF32C4F20002904211
:101AC00001620FDCB0F1804F1DD040F20041C4F242
:101AD0000001884217D040F60001C4F2000188429C
:101AE00011D017E040F60041C4F2000188420AD04C
:101AF00044F20001C4F20101884204D00021C4F282
:101B00000101884206D1816801F00701062904BF5E
:101B1000002070470168002241F001010160104679
:101B20007047000010B5016804460869800744BF8B
:101B3000C8685FEA807039D40869400744BFC86844
:101B40005FEA40703ED40869000744BFC8685FEA96
:101B5000007045D40869C00644BFC8685FEAC06029
:101B60004AD40869C0071CBFC8685FEAC07051D179
:101B70000869000644BFC8685FEA006052D408697B
:101B8000400644BFC8685FEA406053D408698006D5
:101B900046BFC8685FEA806010BD6FF02002204633
:101BA0000A61BDE81040FFF7BBB900BF6FF002004B
:101BB0000861012020778869800743D02046FFF71D
:101BC0008FFC45E06FF004000861022020778869EF
:101BD00010F4407F40D02046FFF782FC42E000BF77
:101BE0006FF00800086104202077C86980073DD0A5
:101BF0002046FFF775FC3FE06FF0100008610820F9
:101C00002077C86910F4407F3AD02046FFF768FC7F
:101C10003CE000BF6FF001000861204600F03EF894
:101C20002168A5E76FF0800008612046FFF776F98C
:101C30002168A4E76FF040000861204600F01CF91D
:101C40002168A3E7204600F025F8204600F024F89C
:101C50002168002020776FE7204600F01BF820461F
:101C600000F01AF82168002020776CE7204600F089
:101C700011F8204600F010F821680020207769E76D
:101C8000204600F007F8204600F006F82168002002
:101C9000207766E770470000704700002DE9F04F9D
:101CA00081B0006840F20041C4F2000188421CBFCC
:101CB00001B0BDE8F08F40F2000ACFF6FF7A40F69F
:101CC00018064FF600044FF60047C4F20206AAF5C4
:101CD0008018CFF6FF74CFF6FF774FF000734FF008
:101CE000800E4FF4000C2020C6F800A046F80480B7
:101CF00046F807A03351C6F800E0C6F800C0C6F8A1
:101D000000A046F8048046F807A0F051335140F295
:101D10007003C6F800E0C6F800C0C2F200035B69B9
:101D200044F6D3525B6AC1F26202A3FB022080092F
:101D30004FF47A7248F6890100FB1232C8F6880126
:101D4000A0FB011591B24CF6CD4251434FEAD14B65
:101D500069090901A1EB55114EF660229342A0EBEF
:101D600081091DD22020C6F800A046F8048046F85C
:101D700007A0F0511020F0514FF400703051C6F818
:101D800000E0C6F800C0C6F800A046F8048046F897
:101D900007A03051C6F800E0C6F800C009E000BF57
:101DA0004BF27320C4F2E750A3FB0001880B00F054
:101DB000ADFB4FF0200C10234FF4007080214FF446
:101DC00000024FF48075B9F1000FC6F800A046F884
:101DD000048046F807A046F807C0F351305131603F
:101DE0003260C6F800A046F8048046F807A0F35118
:101DF000355130513160326004D0484600F086FBE6
:101E000015E000BFC6F800A046F8048046F807A019
:101E100046F807C0F351305131603260C6F800A077
:101E200046F8048046F807A0305131603260202027
:101E3000C6F800A046F8048046F807A0F05110202C
:101E40004FF4007180224FF40003F05131513260A1
:101E50003360C6F800A046F8048046F807A0F051A9
:101E60004FF480703051315132605846336001B0C8
:101E7000BDE8F04F00F04ABB70470000FEE70000ED
:101E80002DE9F04340F2000C40F61800CFF6FF7C3D
:101E90004FF600014FF60043C4F20200ACF5801289
:101EA000CFF6FF71CFF6FF734FF0200E10254FF0E5
:101EB000007480264FF400074FF480784FF4806957
:101EC000C0F800C0425040F803C040F803E0C550DD
:101ED000445006600760C0F800C0425040F803C09C
:101EE00040F803E0C550445006600760C0F800C0E9
:101EF000425040F803C040F803E0C550445006602B
:101F00000760C0F800C0425040F803C0C5504450BC
:101F100006600760C0F800C0425040F803C0C550DA
:101F2000445006600760C0F800C0425040F803C04B
:101F300040F80180445006600760C0F800C042507D
:101F400040F803C0445006600760C0F800C042502B
:101F500040F803C0C55040F8039044500660076045
:101F6000C0F800C0425040F803C04450066007600B
:101F7000C0F800C0425040F803C040F803E04450AD
:101F800006600760C0F800C0425040F803C04450EB
:101F900006600760C0F800C0425040F803C040F837
:101FA00003E0C55040F8039040F8018044500660BB
:101FB0000760BDE8F0830000FEE70000FEE70000D8
:101FC0007047000070470000FEF73ABC4EF688509C
:101FD000CEF20000016841F470010160704700001A
:101FE00040F2CC00C2F20000FFF79CBD40F214109A
:101FF000C2F20000FFF796BDFEE700002DE9F04FAA
:1020000003AF83B0C0B3044646F2676148F21F597C
:1020100044F6D35C48F6AD320320C6F26661C5F2E1
:10202000EB19C1F2620CC6F6DB02234603F1090686
:10203000132E27D353FB01F6B51005EBD6760936E0
:10204000132E21D353FB09F6751105EBD67609360D
:10205000132E1AD353FB0CF6B51105EBD67653FBB2
:1020600002F31D13093605EBD373132E00F10400A0
:10207000DCD2033809E000BF00204FF00008FEF773
:10208000FDF8BBE0023800E00138C11D21F0070176
:10209000ADEB010AD546FEF7F1F8002C5AD04CF60C
:1020A000CD4B4FF000080121CCF6CC4B47F8140C77
:1020B000A4FB0B32D30803EB8302A4EB420242F0F1
:1020C00030020A2C0AF8012048D3A3FB0B25EA08AA
:1020D00002EB8202A3EB4202C64642F030020AEB58
:1020E0000103642C5A703DD3A4FB09256A09A2FBA5
:1020F0000B5C4FEADC0505EB8505A2EB450242F0DF
:102100003002B4F57A7F9A7032D344F6D350C1F2DC
:102110006200A4FB0025AA09A2FB0B50C00800EB3B
:10212000800041F25976A2EB4000CDF2B71640F0A4
:102130003000A4FB0656D87042F210700EF104086D
:1021400084424FEA563401F10401B1D24EF0030249
:1021500011E000BF4FF0000850E000BF4A1E884663
:1021600009E000BF4EF001024EF0020803E000BF9C
:102170004A1C01F1020857F8140C531C032A03F0FF
:10218000030C05D20022BCF1000F20D136E000BFC5
:1021900023F00301C1F1000E0AEB0809C41E00265A
:1021A00009EB060313F8012C19F8061013F8035C69
:1021B00013F8023C043E04F8042FB64504F8011C51
:1021C0006370A570ECD17242BCF1000F16D0A8EB81
:1021D00002011AF80110BCF1010F81540ED0531CFA
:1021E000A8EB03011AF80110BCF1020FC15405D08D
:1021F0000232A8EB02011AF8011081540021A7F164
:102200000C0400F80810A546BDE8F08F94B043F622
:10221000300547F20007C4F20205C4F20007FEF7DA
:102220001DFB06AC201D2C21FEF7CFF800260496DE
:10223000CDE90266CDE9006612962869022140F0D8
:1022400080502861286900F08050129012981296F0
:10225000386861F38F303860386800F4404012907D
:1022600012980120099010200A90204606910C96A1
:10227000FEF782FC20B1EFF3108072B6FEE700BFDC
:102280000F20CDE9000668460021CDE902660496DC
:10229000FEF78CFB20B1EFF3108072B6FEE700BFB3
:1022A00000240A940094286807F5CA3640F001001B
:1022B000286028684FF4866100F0010000900098C3
:1022C00000942868002240F00200286028684FF43B
:1022D000866800F00200009000980094286840F0A2
:1022E00004002860286800F0040000900098304640
:1022F000FEF79AFA07F5CC352846802100224FF0E8
:102300008009FEF791FA07F5C83738464FF4407157
:1023100000224FF4407AFEF787FACDF818800DF1CD
:1023200018084FF0010B30464146CDE907B4099437
:10233000FEF79CF928464146CDE9069BCDE90844C5
:10234000FEF794F938464146CDE906ABCDE908449D
:10235000FEF78CF940F2CC0048F63713C2F20000C9
:102360004FF08041C0F241030994CDE90744CDE923
:10237000124443F67F6280E81600C0E903348461AA
:10238000FEF718FE20B1EFF3108072B6FEE700BF33
:102390004FF48050069040F2CC00C2F2000006A933
:1023A000FEF7D0FF20B1EFF3108072B6FEE700BF5A
:1023B00040F2CC00C2F20000FFF770FA20B1EFF358
:1023C000108072B6FEE700BF40F2CC00C2F20000FF
:1023D00012A9FEF7A7FD28B1EFF3108072B600BF77
:1023E000FEE700BF0A200090012001900F2003901B
:1023F00040F2CC000025C2F200006946002202959E
:10240000FFF77AF920B1EFF3108072B6FEE700BF54
:1024100040F2004440F21410C4F20004C2F2000082
:1024200043F67F6109220995CDE90755CDE90055AD
:10243000C0E90041C0E9025205618561FEF7BAFDBD
:1024400020B1EFF3108072B6FEE700BF4FF480506A
:10245000069040F21410C2F2000006A9FEF772FFC7
:1024600020B1EFF3108072B6FEE700BF40F2141007
:10247000C2F200006946FEF755FD28B1EFF3108067
:1024800072B600BFFEE700BF04F5006240F27004C0
:10249000C2F200042046002140F8142F43F67F6268
:1024A0004FF0FF330991CDE90711CDE90011C0E9E3
:1024B0000121C0E903318161FEF77CFD20B1EFF31A
:1024C000108072B6FEE700BF4FF4805014340690BF
:1024D00006A92046FEF736FF20B1EFF3108072B652
:1024E000FEE700BF69462046FEF71CFD20B1EFF372
:1024F000108072B6FEE700BF40F2CC00C2F20000CE
:102500000021FFF76BFAFFF7BBFCFEE72DE9F04F68
:1025100083B0C8B141F259710026CDF2B71142F231
:102520000F7203460A2B18D3642B13D3B3F57A7FAB
:1025300012D3A3FB017593424FEA553306F104060B
:10254000F0D8013E09E000BF03B0BDE8F04FFFF74F
:1025500055BD00BF013600E0023640F2000B40F2EC
:102560001844CFF6FF7BC4F20204FFF747FD721C4C
:102570004FF6004102F00103002ECFF6FF710193E8
:1025800000F0E28022F0010202920023ABF58012FB
:102590004FF400784FF080094FF4000A4FF4807533
:1025A0004FF0200C10F803E0C4F800B45FEACE66E8
:1025B0000EF0F0076250C4F800B048BFC4F800C085
:1025C000BE0644BF102626607E0644BF4FF48066D8
:1025D00026603E064FEA0E1748BF6550FE06FFB262
:1025E00044F80180C4F80094C4F800A4C4F800B40E
:1025F0006250C4F800B048BFC4F800C0BE0644BF73
:10260000102626607E0644BF4FF4806626603F0693
:1026100048BF655044F80180C4F80094C4F800A491
:10262000C7187F78C4F800B4FE0607F0F0066250C1
:10263000C4F800B048BFC4F800C0B50644BF1025B8
:102640002560750644BF4FF48065256036064FEA65
:1026500007174FF4807548BF6550FE06FFB244F877
:102660000180C4F80094C4F800A4C4F800B4625017
:10267000C4F800B048BFC4F800C0BE0644BF10266E
:1026800026607E0644BF4FF4806626603F0648BF42
:10269000655044F80180C4F80094029F02339F42C1
:1026A000C4F800A47FF47EAF019A002A48D0C05C31
:1026B000ABF58012C30600F0F003C4F800B462501A
:1026C000C4F800B044BF202727609F0644BF1027EE
:1026D00027605F0644BF4FF4806727601B0644BF36
:1026E0004FF4807363504FF4007363508023C4F839
:1026F00000344FF400030001C4F80034C4F800B4FF
:102700006250C206C0B2C4F800B044BF20222260AA
:10271000820644BF10222260420644BF4FF480620A
:102720002260000644BF4FF4807060504FF4007088
:1027300060508020C4F800044FF40000C4F8000486
:1027400003B0BDE8F08F00BF0023019A002AF7D044
:10275000ADE7F1EE100A4FF6FF71C0F2C03120EA8A
:10276000010040F04070E1EE100A704700000000E8
:10277000000000000102030406070809020000002F
:10278000040000000800000010000000FDFFFFFF33
:10279000FBFFFFFFF7FFFFFFEFFFFFFFC027000872
:1027A0000000002010000000D0010008D027000821
:1027B0001000002050070000EC010008000000009D
:1027C00001000000100000000024F40000000000E0
:040000050800019559
:00000001FF
