:020000040800F2
:100000001007002035020008B9160008B1160008D4
:10001000B51600082D040008CD17000800000000E8
:10002000000000000000000000000000C1160008F1
:100030003104000800000000BD160008C5160008C5
:100040004F0200084F0200084F0200084F0200084C
:100050004F0200084F0200084F0200084F0200083C
:100060004F0200084F0200084F0200084F0200082C
:100070004F0200084F0200084F0200084F0200081C
:100080004F0200084F0200084F0200080000000065
:100090000000000000000000000000004F02000807
:1000A0004F0200084F0200084F0200084F020008EC
:1000B0004F020008DD1600084F0200084F0200083A
:1000C0004F0200084F0200084F0200084F020008CC
:1000D0004F0200084F0200084F0200080000000015
:1000E0004F0200084F0200084F0200080000000005
:1000F0000000000000000000000000004F020008A7
:10010000000000004F0200084F0200084F020008E4
:1001100000000000000000000000000000000000DF
:100120004F0200084F0200084F0200084F0200086B
:100130004F02000800000000000000000000000066
:100140000000000000000000000000004F02000856
:100150004F0200084F0200084F0200084F0200083B
:100160004F0200084F0200080000000000000000DD
:10017000000000000000000000000000000000007F
:10018000000000004F020008000000000000000016
:100190004F02000800F002F800F03CF80AA090E8D6
:1001A000000C82448344AAF10107DA4501D100F032
:1001B00031F8AFF2090EBAE80F0013F0010F18BFC3
:1001C000FB1A43F00103184764180000841800006C
:1001D000103A24BF78C878C1FAD8520724BF30C873
:1001E00030C144BF04680C60704700000023002445
:1001F00000250026103A28BF78C1FBD8520728BF37
:1002000030C148BF0B6070471FB501F0F6FB1FBD42
:1002100010B510BD00F0D0F81146FFF7F5FF01F062
:10022000D7FA00F0EEF803B4FFF7F2FF03BC00F0DA
:10023000F5F800000948804709480047FEE7FEE757
:10024000FEE7FEE7FEE7FEE7FEE7FEE7FEE7FEE786
:1002500004480549054A064B70470000C9160008C6
:100260009501000810010020100700201003002055
:100270001003002053EA020C00F069802DE9F04BD6
:100280004FF00006002B1FBFB3FA83F503FA05F405
:1002900024FA05F65E4012BF1643B2FA82F502FA5E
:1002A00005F4C5F120051EBF22FA05FC44EA0C0442
:1002B000203556EA044C4FEA144418BF641C4FF032
:1002C00000084FF00009904271EB030C39D300296C
:1002D00019BFB1FA81F701FA07F6B0FA80F700FA10
:1002E00007F6C7F120071EBF20FA07FC46EA0C06F6
:1002F0002037B6FBF4FCA7EB0507103F07F01F0BF8
:10030000CBF120062CFA06F60CFA0BFB44BFB346E1
:100310000026202FA4BF5E464FF0000B5BEA060CC0
:1003200008BF4FF0010B19EB0B0948EB0608ABFBBC
:10033000027C06FB02CC0BFB03CCC01B71EB0C0157
:10034000C1E70B46024641464846BDE8F08B13B56F
:10035000084318BF4FF0FF300146AFF30080BDE8FF
:100360001C4070474FF0000200B513469446964675
:10037000203922BFA0E80C50A0E80C50B1F12001B8
:10038000BFF4F7AF090728BFA0E80C5048BF0CC066
:100390005DF804EB890028BF40F8042B08BF7047C4
:1003A00048BF20F8022B11F0804F18BF00F8012B36
:1003B0007047704770477047754600F02BF8AE469F
:1003C00005006946534620F00700854618B020B561
:1003D000FFF73EFFBDE820404FF000064FF000075A
:1003E0004FF000084FF0000BAC46ACE8C009ACE899
:1003F000C009ACE8C009ACE8C00921F007018D468E
:10040000704710B50446AFF300802046BDE81040A9
:10041000FFF709BF0048704710000020014918206D
:10042000ABBEFEE72600020070470000FEE70000BA
:10043000704700002DE9F04F82B000F13E4241F2DA
:10044000000502F1FF77C4F2020507224FEAB72642
:10045000A84208BF0422042E38BF4FEAB7224FF04B
:10046000010A002400274FF00008009208E000BFB6
:10047000023708F10108202F04F1040400F0B480D1
:100480000E680AFA08F916EA090FF1D0D1F804A0AB
:100490000AF0030BABF10106012E17D80322866880
:1004A00002FA07FECA6826EA0E06BA4032438260A4
:1004B0004268CAF3001522EA090205FA08F54FEA74
:1004C000480C6FEA0E062A4342600BE00322BA4052
:1004D000D643BBF1030FBC4604D1BC464FF0030B1F
:1004E00022E000BFC2688D68324005FA0CF52A434D
:1004F000BBF1020FC26017D16FF0030202EA58028B
:10050000024404F01C030F25D2F820E005FA03FA98
:100510000D692EEA0A0E05FA03F343EA0E0313628D
:10052000D1F804A00AF0030B02680BFA0CF3324076
:100530001A431AF4403F4FF0010A026098D000229B
:1005400043F644030192C4F202031A6843F6004ED4
:1005500042F480421A601A68C4F2010E02F480422A
:100560000192019A28F003024FF6084C7244CFF62C
:10057000FF7C52F80C3004F00C060F25B540AB435D
:10058000009D05FA06F6334342F80C30DEF80820E9
:100590004B6842EA090643F60C4CDD0258BF22EADA
:1005A0000906CEF80860C4F2010CDCF800209D02B8
:1005B00042EA090658BF22EA0906CCF80060DEF8D4
:1005C00004209D0342EA090658BF22EA0906CEF834
:1005D0000460DEF80020DB0342EA090658BF22EA85
:1005E0000906CEF8006043E702B0BDE8F08F0000D6
:1005F000002A08BF090481617047000040F208101A
:10060000C2F200000068704740F2000040F208119A
:10061000C2F20000C2F2000100780A6810440860CB
:100620007047000080B543F60040C4F20200016844
:1006300041F400710160016841F48061016001686A
:1006400041F480710160032000F086F8002000F082
:1006500005F800F027F8002080BD000070B540F2DA
:100660000006C2F2000640F208013278C2F2000130
:100670004FF47A730968B3FBF2F20446B1FBF2F16E
:10068000084600F043FB0F2C4FF0010508D838B99D
:100690004FF0FF3021460022002500F031F8746051
:1006A000284670BD82B0002043F640010190C4F29C
:1006B00002014A6842F480424A604A6802F4804279
:1006C0000192019A0090086840F080500860086824
:1006D00000F0805000900098072002B000F03CB875
:1006E000002848BF704700F01F01012202FA01F103
:1006F0004EF200124009CEF2000242F8201070477C
:1007000010B54EF60C5CCEF2000CDCF80030C3F3F2
:10071000022E8EF00704042C28BF0424BEF103032C
:100720004FF0FF3E0EFA04F438BF0023A143994076
:100730000EFA03F39A43114300F00F02043A6244A5
:1007400009010C3200F16043B0F1FF3FC8BF03F56F
:100750006442117010BD00004EF60C51CEF2000143
:100760000A684FF6FF031A4060F30A2242F08060E5
:1007700040F0FD70086070472DE9F041002800F05E
:100780008B8043F60808C4F202080446D8F8F80340
:100790000D4600F00700884207D288F8F853D8F8D1
:1007A000F80300F00700A84276D12068810717D52A
:1007B000410705D5D8F8001041F4E051C8F8001001
:1007C000010705D5D8F8001041F46041C8F80010C1
:1007D000D8F80010A26821F0F0011143C8F8001009
:1007E000C0073FD1D8F8F80300F00700A84207D9A6
:1007F00088F8F853D8F8F80300F00700A8424BD166
:100800002068410707D5D8F80010E26821F4E051CC
:100810001143C8F80010000708D5D8F80000216976
:1008200020F4604040EAC100C8F8000000F07CF805
:10083000D8F8001041F61422C1F30311C0F60002EB
:10084000515C40F2080220FA01F140F20400C2F2C9
:1008500000000068C2F200021160FFF7FFFE0020F6
:10086000BDE8F0816068811E022907D258F8081C93
:1008700089015CBF0120BDE8F08111E0012807D1AA
:1008800058F8081C89035CBF0120BDE8F08107E02F
:1008900058F8081C890703D40120BDE8F08100BF87
:1008A000D8F8001021F003010843C8F80000FFF752
:1008B000A5FE064641F28837D8F80000616800F0CE
:1008C0000C00B0EB810F8DD0FFF798FE801BB84273
:1008D000F2D90320BDE8F08140F2080043F6080198
:1008E000C2F20000C4F202010068096841F6242245
:1008F000C1F38221C0F60002515CC840704700007D
:1009000040F2080043F60801C2F20000C4F20201FE
:100910000068096841F62422C1F34231C0F60002A2
:10092000515CC8407047000010B543F60404C4F29F
:100930000204606800F00C0142F200400829C0F295
:10094000F40007D0042918BF10BD41F20020C0F206
:100950007A0010BD216801F03F0221682368490236
:10096000C3F3881106D4A1FB00010023FFF782FC2A
:1009700007E000BF41F20020C0F27A004843B0FB1C
:10098000F2F021680222C1F3014102EB4101B0FB08
:10099000F1F010BD2DE9F04182B000286AD0044684
:1009A000007843F60006C007C4F202060BD0B06818
:1009B00000F00C00042840F0A1803068800302D5CC
:1009C0006068002856D0207880071AD5B06810F0EB
:1009D0000C0F09D0B06800F00C00082840F0A88087
:1009E0007068400200F1A4803068800702D5E0689A
:1009F00001283FD13068216920F0F80040EAC100A9
:100A000030602078000739D4207840074ED4A5699B
:100A10005DB3B06800F00C00082840F0BD80012DE7
:100A200028D07068E16900F480028A4222D1216AEC
:100A300000F03F028A421DD147F6C071626A014050
:100A4000B1EB821F16D1A26A0023CFF6FF7303EB2E
:100A5000C23200F440316FF30F0291420AD1E16AD1
:100A600000F07060B0EB016F04D1002002B0BDE86F
:100A7000F08100BF012002B0BDE8F081606900286C
:100A800040F20000C4F2472076D00121C0F8801E59
:100A9000FFF7B4FD054600BF706F8007B4D4FFF7C1
:100AA000ADFD401B0228F7D9DDE000BF306C10F02F
:100AB00080580AD100200190306C40F080503064A2
:100AC000306C00F080500190019847F20007C4F2AA
:100AD00000073868C00541D4386840F48070386039
:100AE000FFF78CFD054600BF3868C00536D4FFF718
:100AF00085FD401B0228F7D9B5E000BFB06800F0C3
:100B00000C00082803D1706840023FF556AF6068BA
:100B1000B0F5803F07D0B0F5A02F40F08D80306851
:100B200040F480203060306840F4803030608DE0E8
:100B3000E068002852D00020C4F247200121016063
:100B4000FFF75CFD054600BF306880073FF552AFF8
:100B5000FFF754FD401B0228F6D984E0A068012865
:100B600005D005284ED1306F40F004003067306F5B
:100B700040F0010030674FE00021C0F8801EFFF711
:100B80003DFD0546706F80077FF53EAFFFF736FDF0
:100B9000401B0228F6D966E00027C4F24727002050
:100BA0003866FFF72BFD022D05460BD1306880011A
:100BB0005ED5FFF723FD401B02284FF00300F5D957
:100BC00054E700BF306880017FF54FAFFFF716FD97
:100BD000401B02284FF00300F4D947E70020C4F27D
:100BE000472000210160FFF709FD054630688007B6
:100BF0007FF507AFFFF702FD401B02284FF003000F
:100C0000F4D933E7316F002821F001013167316FEA
:100C100021F0040131674DD0FFF7F0FC054641F2A9
:100C2000883700BF306F800756D4FFF7E7FC401BC2
:100C3000B842F7D917E000BF3168002821F48031AD
:100C40003160316821F4802131604FD0FFF7D6FC4C
:100C5000054600BF306880033FF5B5AEFFF7CEFC18
:100C6000401B6428F6D9032002B0BDE8F08100BF24
:100C700004F11C052FCD08430021CFF6FF7140EA97
:100C8000821001EBC3316FF30F0140EA05600843A6
:100C9000706001203866FFF7B1FC044630688001BF
:100CA0003FF5E3AEFFF7AAFC001B02284FF003005C
:100CB000F4D9DBE6FFF7A2FC054641F2883700BF16
:100CC000306F800708D5FFF799FC401BB8424FF002
:100CD0000300F5D9CAE600BFB8F1000F7FF497AE64
:100CE000306C20F08050306491E600BFFFF786FC46
:100CF000054600BF306880037FF565AEFFF77EFCD8
:100D0000401B64284FF00300F4D9AFE6411E0020D9
:100D1000B0EB116F1CBF012070474EF21002CEF2F3
:100D2000000251604EF62351CEF20001F0230B7009
:100D30000721906011607047704700007047000005
:100D400010B590F83C20012A4FF002023ED080F806
:100D50003D200268D2F804E0D2F808C00C682EF0FA
:100D60007003234340F6FF34C4F20004A2425360F0
:100D700010DCB2F1804F1ED040F20043C4F20003F9
:100D80009A4218D040F60003C4F200039A4212D0EF
:100D900016E000BF40F60043C4F200039A420AD0B6
:100DA00044F20003C4F201039A4204D00023C4F2C7
:100DB00001039A4204D149682CF0800319439160E1
:100DC0000121002280F83D1080F83C20104610BD23
:100DD000002804BF0120704710B5044690F83D007C
:100DE00028B9002084F83C00204600F08FF802204B
:100DF00084F83D00206840F2FF730268C4F20003EB
:100E000040F2000C9842C4F2010C1DDD40F60001D6
:100E1000C4F20001884220D060451ED040F6004157
:100E2000C4F20001884218D04FF6FF71C4F20001ED
:100E300088421CDC984225DCB0F1804F3AD040F269
:100E40000041C4F2000133E0B0F1804F05D040F220
:100E50000041C4F200018842E6D1A16822F070028C
:100E60000A434FF6FF71C4F200018842E2DD44F20A
:100E7000FF31C4F20101884210DC60451AD044F20F
:100E8000000113E040F60001C4F20001884211D0D5
:100E900040F60041C4F200010AE000BF44F6000140
:100EA000C4F20101884205D044F20041C4F20101BC
:100EB000884203D1216922F440720A43A36922F0D7
:100EC0008001D4F804E0E268194360450160C26221
:100ED000C0F828E002D16169CCF8301001214161ED
:100EE000002084F8461084F83E1084F83F1084F8FF
:100EF000401084F8411084F8421084F8431084F8BC
:100F0000441084F8451084F83D1010BD80B582B0BF
:100F1000006840F20041C4F2000188421CBF02B0E8
:100F200080BD0020019043F64000C4F20200016839
:100F3000002241F0020101600068002100F002007F
:100F4000019001981D20FFF7DBFB1D2002B0BDE8DA
:100F50008040FFF7C5BB000090F83D1001291CBF81
:100F600001207047022180F83D10006840F6FF32F2
:100F7000C168C4F20002904241F00101C1600FDC7F
:100F8000B0F1804F1DD040F20041C4F20001884210
:100F900017D040F60001C4F20001884211D017E0DA
:100FA00040F60041C4F2000188420AD044F2000138
:100FB000C4F20101884204D00021C4F20101884238
:100FC00006D1816801F00701062904BF002070479F
:100FD000016841F0010101600020704780B590F880
:100FE0003C20012A4FF0020200F0C28080F83D2030
:100FF000D0F800C04FF67772DCF8083023EA02021E
:10100000CCF808200B684F2B28DC1F2B44DD202B4D
:1010100045D0302B43D0402B40F0AC80D1F804E0D9
:10102000C968DCF82030DCF8202022F00102CCF87E
:101030002020DCF8182022F0F00242EA011123F00F
:101040000A0242EA0E02CCF81810CCF82020DCF894
:10105000081041F0470121F0300180E06F2B27DDBF
:10106000B3F5005F48D0B3F5805F7AD0702B40F0C5
:101070008180D1E901E3C968DCF8082043EA0E0366
:1010800022F47F4243EA01211143CCF80810DCF836
:10109000081041F0770162E00BB1102B6AD1DCF847
:1010A000081021F07001194341F0070157E000BF1B
:1010B000502B35D0602B5DD1D1F804E0C968DCF845
:1010C000203023F01003CCF82030DCF81830DCF8A6
:1010D000202023F4704322F0A00243EA013142EAC7
:1010E0000E12CCF81810CCF82020DCF8081041F0D3
:1010F000670121F0100132E0D1E901E3C968DCF8B1
:10110000082043EA0E0322F47F4243EA01211143FF
:10111000CCF80810DCF8081041F480411FE000BF53
:10112000D1F804E0C968DCF82030DCF8202022F097
:101130000102CCF82020DCF8182022F0F00242EA6C
:10114000011123F00A0242EA0E02CCF81810CCF882
:101150002020DCF8081041F0570121F02001CCF8E4
:1011600008100022012180F83D10002180F83C1079
:10117000104680BD0122F5E77047000010B50168F8
:1011800004460869800744BFC8685FEA807039D4A4
:101190000869400744BFC8685FEA40703ED40869E8
:1011A000000744BFC8685FEA007045D40869C006FC
:1011B00044BFC8685FEAC0604AD40869C0071CBF62
:1011C000C8685FEAC07051D10869000644BFC868AA
:1011D0005FEA006052D40869400644BFC8685FEA0D
:1011E000406053D40869800646BFC8685FEA8060E3
:1011F00010BD6FF0200220460A61BDE81040FFF7E5
:101200009DBD00BF6FF00200086101202077886952
:10121000800743D02046FFF7AFFF45E06FF00400A2
:10122000086102202077886910F4407F40D0204672
:10123000FFF7A2FF42E000BF6FF008000861042042
:101240002077C86980073DD02046FFF795FF3FE033
:101250006FF01000086108202077C86910F4407F03
:101260003AD02046FFF788FF3CE000BF6FF0010056
:101270000861204600F03EF82168A5E76FF0800085
:1012800008612046FFF758FD2168A4E76FF0400091
:101290000861204600F064F82168A3E7204600F0CA
:1012A00025F8204600F024F82168002020776FE719
:1012B000204600F01BF8204600F01AF821680020B4
:1012C00020776CE7204600F011F8204600F010F877
:1012D00021680020207769E7204600F007F82046C3
:1012E00000F006F821680020207766E770470000CC
:1012F0007047000080B540F27001C2F200010A6838
:10130000501C3A2A086007DD4A68002002F1010EED
:101310000860C1F804E001E0D1F804E0C3B24FF086
:10132000CD0C03FB0CF3DB0A03EB8302A0EB4200C2
:1013300001F8080F5FFA8EF000FB0CF04FEAD02C9A
:101340000CEB8C00AEEB40004B708870081D042243
:101350004FF0FF3381F803C0BDE8804000F068B86B
:1013600070470000002804BF0120704710B50446F4
:1013700090F83D0028B9002084F83C00204600F099
:1013800021F8242084F83D002068C16821F4005130
:10139000C160204600F0A8F92068016921F490415D
:1013A0000161416921F02A014161C16841F40051A4
:1013B000C16000202021206484F83D1084F83E1094
:1013C00010BD000080B586B0016841F20040C4F253
:1013D0000100814202D006B080BD00BF002143F66B
:1013E00030020191C4F20202536900F5744043F0E7
:1013F00020035361536903F020030193019B019182
:10140000136843F004031360126802F004020192AF
:10141000019AC02201920222CDE902210321049106
:101420000821059101A9FFF705F806B080BD00006D
:101430002DE9F04381B0044690F83D0020280DD1FD
:101440000F4600294FF0010000F0DD801646002A0B
:1014500000F0D98094F83C00012803D1022001B0AB
:10146000BDE8F083012084F83C004FF00009212002
:101470001D46C4F8409084F83D00FFF7BFF8A684ED
:10148000E684A1680646B1F5805F07D1206900288F
:101490001CBF38464F46B846074601E04FF00008EB
:1014A00084F83C90E18C2068002900F08B8005F1E5
:1014B00001090AE047B317F8011B4160E18C0139CB
:1014C000E184E18C002900F07D8001680906F1D4F7
:1014D000B9F1000F0AD0EDB1FFF790F8801BA842D8
:1014E00018D8206801680906F6D5E3E701680906FF
:1014F000E0D4016809065CBF01685FEA0161D9D4E4
:1015000001680906F2D5D5E738F8021B00276FF30A
:101510005F21D2E7206850E8030F216820F4D070E3
:1015200041E80302BAB3206850E8030F216820F4B1
:10153000D07041E8030272B3206850E8030F2168BD
:1015400020F4D07041E803022AB3206850E8030F6A
:10155000216820F4D07041E80302002ADAD11AE0B1
:10156000206850E8050F216820F0010041E80502DD
:10157000DAB1206850E8050F216820F0010041E849
:10158000050292B1206850E8050F216820F00100A3
:1015900041E805024AB1206850E8050F216820F0B3
:1015A000010041E80502002ADAD1202084F83D003C
:1015B00084F83E00002084F83C00032001B0BDE820
:1015C000F08300BF0168490619D4FDB1691C0DD133
:1015D0000168490613D4016849065CBF01685FEAE7
:1015E00041610CD401684906F2D508E0FFF706F81E
:1015F000801BA8420AD8206800684006F6D5202043
:1016000084F83D00002001B0BDE8F083206850E878
:10161000030F216820F4D07041E80302E2B3206890
:1016200050E8030F216820F4D07041E803029AB318
:10163000206850E8030F216820F4D07041E80302CD
:1016400052B3206850E8030F216820F4D07041E8BD
:101650000302002ADAD11FE0206850E8050F216854
:1016600020F0010041E80502002A9ED0206850E8E1
:10167000050F216820F0010041E80502002A3FF42F
:1016800094AF206850E8050F216820F0010041E880
:101690000502002A3FF489AF206850E8050F216851
:1016A00020F0010041E80502002AD5D17DE70000C5
:1016B000FEE70000FEE70000FEE7000070470000C4
:1016C00070470000FEF7A0BF4EF68850CEF2000033
:1016D000016841F4700101607047000040F2C000F1
:1016E000C2F20000FFF74ABD10B504460068D4E915
:1016F00002C22369016921F4405111430161626909
:1017000043EA0C01E3691143C268194349F20C63CF
:101710009A431143C1604169A26921F4407141F2C9
:101720000043114340F48062C4F201039A424161D4
:1017300002D1FFF7E5F801E0FFF7CEF8E169636851
:101740001922B1F5004FA0FB02011FD15A00DB0F97
:10175000FEF790FD48F21F51C5F2EB11A0FB0123EB
:101760005A096FF0630302FB0300322303EBC0004E
:10177000A0FB01014FF4F87000EA111000EB021019
:10178000C1F3421108442168886010BD9A009B0F84
:10179000FEF770FD48F21F51C5F2EB11A0FB0123CB
:1017A0005A096FF0630302FB0300322303EB0010BE
:1017B000A0FB0101F02000EA511000EB0210C1F380
:1017C000431108442168886010BD0000FEE7000056
:1017D00094B043F6300547F20007C4F20205C4F2A4
:1017E0000007FEF71FFF08AC201D2C21FEF7BAFDF5
:1017F00000260696CDE90466CDE9026601962869C1
:10180000022140F080502861286900F0805001904A
:1018100001980196386861F38F303860386800F4B9
:1018200040400190019801200B9010200C90204620
:1018300008910E96FFF7AEF820B1EFF3108072B664
:10184000FEE700BF0F20CDE902064FF48050CDE93E
:10185000050602A800210496FEF78EFF20B1EFF3E3
:10186000108072B6FEE700BF0026CDE90B66029637
:101870002868202140F0040028602868002200F039
:10188000040002900298029628684FF0200A40F067
:1018900080002860286800F080000290029802967C
:1018A000286840F001002860286800F001000290DC
:1018B00002980296286840F002002860286807F520
:1018C000C83500F00200029002982846FEF790FE0C
:1018D00007F5CC3420464FF4006100224FF4006934
:1018E000FEF786FE4FF4005008904FF404100DF1FF
:1018F0002008CDE9090620464146FEF79BFD0C2055
:1019000008900220CDE9090607200C9028464146A0
:101910000B96FEF78FFDCDF820A04FF0010A284668
:101920004146CDE909A60B96FEF784FD20464146C7
:10193000CDE9089ACDE90A66FEF77CFD40F2C000C9
:1019400040F20041C2F20000C4F2000140F2E7336D
:101950000B96CDE90966CDE9026643F67F6280E821
:101960004600C0E903368661FFF732FA20B1EFF393
:10197000108072B6FEE700BF4FF48050089040F22E
:10198000C000C2F2000008A9FFF728FB20B1EFF366
:10199000108072B6FEE700BF40F2C000C2F2000045
:1019A00002A9FFF7CDF928B1EFF3108072B600BF9E
:1019B000FEE700BF40F2700007F52441C2F20000CC
:1019C00040F80C1F4FF4165100220C23C0E90112FD
:1019D000C0E90322C0E90532C261FFF7C3FC28B1A8
:1019E000EFF3108072B600BFFEE700BF40F2C00008
:1019F000C2F20000FFF7B0FAFEE7F1EE100A4FF670
:101A0000FF71C0F2C03120EA010040F04070E1EE09
:101A1000100A7047000000000000000001020304EB
:101A2000060708090000000001020304501A00081C
:101A30000000002010000000D0010008601A00081B
:101A40001000002000070000EC010008000000006A
:101A500001000000100000000024F400000000005D
:040000050800019559
:00000001FF
